:100000000C9463000C948B000C948B000C9454089B
:100010000C9454080C9454080C948B000C948B0092
:100020000C948B000C948B000C948B000C948B0024
:100030000C948B000C948B000C948B000C948B0014
:100040000C940A080C948B000C94690A0C94430AD3
:100050000C948B000C948B000C948B000C948B00F4
:100060000C948B000C948B0000000008000201002F
:100070000003040700000000000000000000000072
:10008000250028002B0000000000240027002A0083
:1000900000000000230026002900040404040404D6
:1000A0000404020202020202030303030303010227
:1000B00004081020408001020408102001020408F6
:1000C0001020A50A9B0A11241FBECFEFD8E0DEBF87
:1000D000CDBF25E0A4E6B1E001C01D92A633B20772
:1000E000E1F711E0A0E0B1E0E6E1FEE102C0059039
:1000F0000D92A436B107D9F710E0C2E6D0E004C0F3
:100100002197FE010E94F30EC136D107C9F70E9464
:10011000F00B0C94FE0E0C940000FC01538D448DEA
:10012000252F30E0842F90E0821B930B541710F0A2
:10013000CF96089501970895FC01918D828D9817AF
:1001400061F0828DDF01A80FB11D5D968C91928DBB
:100150009F5F9F73928F90E008958FEF9FEF0895B8
:10016000FC01918D828D981731F0828DE80FF11D81
:10017000858D90E008958FEF9FEF0895FC01918D9C
:10018000228D892F90E0805C9F4F821B91098F7395
:100190009927089580E090E0892B29F00E94370983
:1001A00081110C94000008952091B7033091B80399
:1001B0002817390771F49091B5038091B603981709
:1001C00041F0E091B503F0E0E459FC4F808190E00C
:1001D00008958FEF9FEF089508951F93CF93DF93B6
:1001E000DC015C962D913C915D972115310539F428
:1001F00081E090E013969C938E9312973DC05196A8
:10020000ED91FC91529750969C915097892F809533
:100210001FB75E964C915E9741FB772770F941FDC1
:100220006095F8944081772311F0492B01C0482351
:100230004083E9012197F1F748E0508160FF02C057
:10024000592B01C058235083E9012197F1F7669596
:10025000415099F7772321F090818923808303C04F
:100260008081982B90831FBF5C968D919C915D97A8
:100270000197F1F721E030E0C901DF91CF911F91A3
:1002800008952091B7033091B8032817390771F406
:100290008091B6032091B50390E0805C9F4F821B54
:1002A000910960E470E00E94CB0E089580E090E038
:1002B00008952091B7033091B80328173907B9F48E
:1002C0009091B5038091B603981789F0E091B5033A
:1002D000F0E0E459FC4F80812091B50330E02F5FBE
:1002E0003F4F2F7333272093B50390E008958FEF8E
:1002F0009FEF08958EBD00000DB407FEFDCF8EB5B3
:1003000008958FEF0C947A01089580E090E00895AD
:100310000E94F90EFC01848DDF01A80FB11DA35AC4
:10032000BF4F2C91848D90E001968F739927848F15
:10033000A689B7892C93A089B1898C9180648C930C
:10034000938D848D981306C00288F389E02D8081F7
:100350008F7D8083089590E0FC01E859FF4F349130
:10036000FC01E255FF4F2491FC01E656FF4FE4915A
:10037000EE2309F43BC0332339F1333091F038F4E4
:100380003130A9F0323001F584B58F7D12C037309D
:1003900091F03830A1F03430B9F4809180008F7D35
:1003A00003C0809180008F77809380000DC084B55A
:1003B0008F7784BD09C08091B0008F7703C0809192
:1003C000B0008F7D8093B000F0E0EE0FFF1FE45887
:1003D000FF4FA591B4918FB7F894EC91611103C0D0
:1003E00020952E2301C02E2B2C938FBF089561E002
:1003F000FC0184810E94AB01809164018111109203
:1004000064010895CF93DF93EC018E81882389F0F6
:100410008F8198859C012F5F3F4F38872F838230D3
:10042000924018F40E948101F3CFCE010E94F7019F
:100430001E82DF91CF9108952FB7F8946091B10398
:100440007091B2038091B3039091B4032FBF0895CC
:100450000F931F93CF93DF93EB010E941C028B013C
:100460000E9481018F3F49F00E941C02601B710BAA
:100470006C177D07A8F380E001C081E0DF91CF9188
:100480001F910F910895CF92DF92FF920F931F93C8
:10049000CF93DF9300D000D0CDB7DEB76C01F62E3E
:1004A00029833A834B835C830E940202809164011A
:1004B00029813A814B815C81811109C081E080935F
:1004C00064019091B9038091BA039CBD8DBD60E039
:1004D000F601848129833A834B835C830E94AB01BC
:1004E0006CE271E0C6010E9428028F2D80640E9498
:1004F0007A0108E110E05C814B813A812981DA01BF
:10050000C901002E04C0B695A795979587950A94C2
:10051000D2F729833A834B835C830E947A01085087
:10052000110929813A814B815C81083FFFEF1F0748
:1005300031F7FF2029F088E0F81204C087E803C0F3
:1005400085E901C08FEF0E947A0110E00E948101CD
:10055000F601828787FF04C01F3F11F01F5FF6CFAF
:100560000F900F900F900F90DF91CF911F910F91EF
:10057000FF90DF90CF900895EF92FF920F931F931B
:10058000CF93DF93EC0179014115510561057105A8
:1005900011F482E13CC08B85833039F089E0440F4F
:1005A000551F661F771F8A95D1F79A01AB0168E145
:1005B000CE010E944302882311F084E028C08EEF10
:1005C0000E947A0187018EEFF81AF80181918F015C
:1005D0000E947A010E151F05C1F78FEF0E947A0164
:1005E0008FEF0E947A010E9481018A878F71853086
:1005F00031F081E18D83CE010E94F70109C068E5E9
:1006000072E0CE010E942802811107C085E18D832E
:10061000CE010E94F70180E013C020E030E0A90184
:100620006DE0CE010E944302811104C00E9481014D
:10063000882311F084E1EBCFCE010E94F70181E025
:10064000DF91CF911F910F91FF90EF900895CF937D
:10065000DF9380916701882399F1C0916501D09162
:100660006601409100015091010160910201709179
:1006700003012CE631E0CE010E94BC02811102C0D0
:1006800080E01FC0409168015091690160916A014A
:1006900070916B01411551056105710579F02CE6EA
:1006A00031E0CE010E94BC02882351F31092680110
:1006B0001092690110926A0110926B011092670109
:1006C00081E0DF91CF910895BF92CF92DF92EF92B8
:1006D000FF920F931F93CF93DF936B017C01B42E96
:1006E0008091000190910101A0910201B09103015C
:1006F0008C159D05AE05BF0509F476C00E94270341
:10070000882309F478C0C0916501D09166018E817B
:10071000882369F088819981AA81BB81C816D9068E
:10072000EA06FB0621F48F819885892BB1F1C882F6
:10073000D982EA82FB828B85A7019601833039F04A
:1007400089E0220F331F441F551F8A95D1F761E1BD
:10075000CE010E944302882319F083E08D8337C0C5
:100760000E941C028B010E9481018A878F3F49F4FD
:100770000E941C02601B710B6D327140A0F38FE070
:1007800003C08E3F31F08DE08D83CE010E94F701D2
:100790001EC018861F8281E08E830CE611E00E9445
:1007A0008101F80181938F01F3E00C361F07B9F73F
:1007B0008F8198859E5F98878F832985222319F0E2
:1007C0008115924048F0CE010E94020205C0CE0180
:1007D0000E94F70180E00FC0C0920001D092010199
:1007E000E0920201F092030180916701482F4B29AA
:1007F0004093670181E0DF91CF911F910F91FF90AE
:10080000EF90DF90CF90BF9008954F925F926F92DC
:100810007F928F929F92AF92BF92CF92DF92EF9290
:10082000FF920F931F93CF93DF93EC016A017B013B
:1008300028013901423051056105710510F480E04D
:1008400073C089859A85AB85BC850196A11DB11DB4
:1008500084179507A607B70790F38B889C88AD8807
:10086000BE888F89803129F4BB27AF2D9E2D8D2D19
:1008700009C0DB01CA0147E0B695A7959795879512
:100880004A95D1F7880E991EAA1EBB1E80910001C1
:1008900090910101A0910201B0910301881699067F
:1008A000AA06BB0679F48F898031A1F4DD24EE24F9
:1008B000FF24C601880F991FFC01E459FE4F5182A5
:1008C000408219C040E0C501B4010E946403811157
:1008D000EACFB5CFE894C7F8DD24EE24FF24C601A3
:1008E000880F991F880F991FFC01E459FE4F408221
:1008F0005182628273828091670181608093670177
:100900008A89823080F08D819E81AF81B885880E82
:10091000991EAA1EBB1E8092680190926901A09246
:100920006A01B0926B0181E0DF91CF911F910F912D
:10093000FF90EF90DF90CF90BF90AF909F908F90FF
:100940007F906F905F904F9008958F929F92AF929B
:10095000BF92CF92DF92EF92FF920F931F93CF93AC
:10096000DF93FC0181859285A385B4850196A11D45
:10097000B11D84179507A607B70710F480E05CC087
:1009800083899489A589B689C789C03129F4852EC0
:10099000962EA72EBB2409C04A015B01C7E0B6947E
:1009A000A79497948794CA95D1F7E9016A017B01CE
:1009B0008F01BC01CD01680D791D8A1D9B1D8090A2
:1009C000000190900101A0900201B0900301681510
:1009D00079058A059B0599F4F80187898031A9F486
:1009E000B701A601552766277727440F551FFA013F
:1009F000E459FE4F80819181A0E0B0E018C040E052
:100A00000E9464038111E8CFB9CFB701A6014F77E7
:100A1000552766277727440F551F440F551FFA01A6
:100A2000E459FE4F80819181A281B381BF70888398
:100A30009983AA83BB8381E0DF91CF911F910F91AE
:100A4000FF90EF90DF90CF90BF90AF909F908F90EE
:100A500008953F924F925F926F927F928F929F92F2
:100A6000AF92BF92CF92DF92EF92FF920F931F93BC
:100A7000CF93DF93CDB7DEB72C970FB6F894DEBFD8
:100A80000FBECDBF5C01DC015B968D909C905C97A6
:100A90001696CD90DD90ED90FC901997C114D1047D
:100AA000E104F10439F0BFEFCB1ADB0AEB0AFB0AD1
:100AB000312C07C0F401C080D180E280F380332460
:100AC0003394F40181859285A385B4859C01AD01A1
:100AD0002F5F3F4F4F4F5F4F29873A874B875C8788
:100AE000260137011D821E821F821886F40181852E
:100AF0009285A385B4852D813E814F815885281725
:100B000039074A075B0708F063C089859A85AB857A
:100B1000BC858C159D05AE05BF0550F482E0C82E3E
:100B2000D12CE12CF12C92E0492E512C612C712C0E
:100B30009E012F5F3F4FB701A601C4010E94A5048B
:100B4000882309F445C089819A81AB81BC81892BB6
:100B50008A2B8B2B41F0260137019FEF491A590A46
:100B6000690A790A05C0C414D504E604F70491F0B3
:100B70002D813E814F8158852F5F3F4F4F4F5F4FF3
:100B80002D833E834F8358873FEFC31AD30AE30A6E
:100B9000F30AACCF0FEF1FEF2FEF3FE0B301A2013D
:100BA000C4010E940504882399F0D50116964D9141
:100BB0005D916D917C911997411551056105710504
:100BC00049F093018201C4010E940504811102C011
:100BD00080E02AC0D50116964D925D926D927C926E
:100BE0001997332051F0D301C2010196A11DB11D07
:100BF000F40180839183A283B383F5018789908D6B
:100C0000A18DB28D892B8A2B8B2B69F4D501579638
:100C10004D925D926D927C925A9714968C91149796
:100C2000806814968C9381E02C960FB6F894DEBF02
:100C30000FBECDBFDF91CF911F910F91FF90EF902D
:100C4000DF90CF90BF90AF909F908F907F906F90EC
:100C50005F904F903F9008954F925F926F927F9276
:100C60008F929F92AF92BF92EF92FF920F931F933A
:100C7000CF93DF9300D000D01F92CDB7DEB78C01A9
:100C80006D83DC0115968C911597813009F057C062
:100C900014968C9181FF53C05AC0038CF48DE02DC3
:100CA000258530E0275F3F4F2A013B01B1E04B1A19
:100CB000510861087108022E04C076946794579415
:100CC00047940A94D2F7D501C4010197A109B1094B
:100CD00004C0B695A795979587952A95D2F7841560
:100CE0009505A605B70508F070C0F8014789508D35
:100CF000618D728D46835783608771872C013D011A
:100D00007801E6E0EE0EF11CD801411451046104B3
:100D1000710409F464C016964D915D916D917C91BA
:100D2000199797015B968D919C915C970E94A50401
:100D3000B1E04B1A5108610871088111E5CF81E0DB
:100D400090E0F8019383828380E090E04FC182FFBE
:100D50000EC0F80142855385648575858388948823
:100D6000A588B688481559056A057B05F1F4D801B0
:100D70001A964D915D916D917C911D975B968D9129
:100D80009C915C97FC0174807A944A015B0129E094
:100D9000B694A794979487942A95D1F778207A01EE
:100DA000F1E0FF22772011F164C081149104A104C5
:100DB000B10409F072CF1682178210861186F801ED
:100DC0001286138614861586D2CF452B462B472BC9
:100DD00009F48BCF84199509A609B7098FCF1A9604
:100DE0008D929D92AD92BC921D97C1CFE114F104FA
:100DF00009F03FC0F8014681578160857185411532
:100E000051056105710549F48789908DA18DB28DD9
:100E10000097A105B10541F521C09E012F5F3F4F0D
:100E20000E94A504882309F48FCF89819A81AB8120
:100E3000BC81F801238D348DF9012789203129F0F7
:100E400048EF5FEF6FEF7FE004C048EF5FEF60E0D7
:100E500070E084179507A607B70730F0C8010E9415
:100E60002905811106C06BCFF80186839783A0877F
:100E7000B187D8015B96ED91FC915C9716968D90A9
:100E80009D90AD90BC901997B2E08B1A9108A10883
:100E9000B108058404C0880C991CAA1CBB1C0A94C8
:100EA000D2F786859785A089B189880E991EAA1EDA
:100EB000BB1E870C911CA11CB11CE114F10409F5A7
:100EC000F801428553856485758583899489A58950
:100ED000B689481759076A077B0798F00E942703CD
:100EE000882309F42CCF8092000190920101A092F6
:100EF0000201B092030180916701816080936701D4
:100F000008C041E0C501B4010E946403882309F4CC
:100F100016CFF701E459FE4F8D818083F801828559
:100F20009385A485B5850196A11DB11D8287938700
:100F3000A487B587438954896589768948175907F5
:100F40006A077B0738F4838B948BA58BB68B8481DF
:100F500080688483D80114968C9183FD03C081E05E
:100F600090E044C0F8019581992309F4E8CE87FF09
:100F700038C0668577858089918941E00E94640345
:100F8000882309F4DCCED8015296EC91B0E2EB9FB5
:100F900090011124D901A459BE4F109709F4CFCE66
:100FA000F8018581823050F44389548965897689B6
:100FB0005C964D935D936D937C935F97F801878961
:100FC000908DA18DB28DF901E459FE4F938F828FE0
:100FD000B58BA48BD80114968C9114978F771496A7
:100FE0008C930E9427038111BACFA9CE0F900F9046
:100FF0000F900F900F90DF91CF911F910F91FF9065
:10100000EF90BF90AF909F908F907F906F905F9088
:101010004F9008951F920F920FB60F9211242F93A5
:101020003F938F939F93AF93BF938091B103909120
:10103000B203A091B303B091B4033091B00323E0A5
:10104000230F2D3720F40196A11DB11D05C026E800
:10105000230F0296A11DB11D2093B0038093B1030D
:101060009093B203A093B303B093B4038091AC0305
:101070009091AD03A091AE03B091AF030196A11D75
:10108000B11D8093AC039093AD03A093AE03B093D6
:10109000AF03BF91AF919F918F913F912F910F908F
:1010A0000FBE0F901F9018951F920F920FB60F92C0
:1010B00011242F933F934F935F936F937F938F935D
:1010C0009F93AF93BF93EF93FF93E091B703F0919A
:1010D000B803309709F451C0968DA685B7858585EC
:1010E00091FF04C09C91892329F447C09C918923D6
:1010F00009F043C0A389B4899C918589809589238F
:101100008C93868997890197F1F7608D718DA685FB
:10111000B785558538E020E0CB010197F1F7822FA4
:1011200090E095958795282F4C91452309F02068EC
:10113000315091F7868D81FD20958091B60390E026
:1011400001968F7399273091B503381749F0A09114
:10115000B603B0E0A459BC4F2C938093B60303C0F0
:10116000868D8160868F828D938D0197F1F7A3899B
:10117000B4899C918589892B8C93FF91EF91BF91C4
:10118000AF919F918F917F916F915F914F913F911F
:101190002F910F900FBE0F901F901895E091B703FD
:1011A000F091B803E817F90769F4A389B4899C9111
:1011B0008589809589238C931092B8031092B70388
:1011C00081E0089580E00895E8E0F4E0A089B18925
:1011D00082E08C93A485B5851C92A685B7858FEC9B
:1011E0008C93108EA489B58986E08C93A289B389EB
:1011F0008C9180618C93A289B3898C9188608C9347
:10120000A289B3898C9180688C930288F389E02D40
:1012100080818F7D80830895CF92DF92EF92FF923D
:101220000F931F93CF93DF936C017A018B01C0E082
:10123000D0E0CE15DF0589F0D8016D918D01D60182
:10124000ED91FC910190F081E02DC6010995892B6B
:1012500011F47E0102C02196ECCFC701DF91CF913E
:101260001F910F91FF90EF90DF90CF90089588E04D
:1012700094E00E94BE0021E0892B09F420E0822F37
:1012800008958F929F92AF92BF92CF92DF92EF928A
:10129000FF926B017C010E941C024B015C01C60E97
:1012A000D71EE81EF91E0E941C02681579058A05E2
:1012B0009B0528F0C616D706E806F906A0F7FF90AA
:1012C000EF90DF90CF90BF90AF909F908F90089558
:1012D0006115710579F0FB0101900020E9F7319764
:1012E000AF01461B570BDC01ED91FC910280F381AD
:1012F000E02D099480E090E008954F925F926F9204
:101300007F92EF92FF920F931F93CF93DF93CDB70E
:10131000DEB7A1970FB6F894DEBF0FBECDBF7C013C
:10132000FA01CB0119A2223008F42AE08E010F5DE8
:101330001F4F422E512C612C712CBF01A301920131
:101340000E94A90EF901CA01015011096A3014F472
:10135000605D01C0695CD8016C93232B242B252B85
:1013600061F7B801C7010E946809A1960FB6F89409
:10137000DEBF0FBECDBFDF91CF911F910F91FF90C8
:10138000EF907F906F905F904F9008950F931F9311
:10139000CF93DF93EC010E9468098C0163E471E054
:1013A000CE010E946809800F911FDF91CF911F919C
:1013B0000F910895EF92FF920F931F93CF93DF93B6
:1013C000EC0181E0888F9B8D8C8D981305C0E88996
:1013D000F989808185FD24C0F62E0B8D10E00F5F0A
:1013E0001F4F0F731127E02E8C8DE8120CC00FB623
:1013F00007FCFACFE889F989808185FFF5CFCE0116
:101400000E948A01F1CF8B8DFE01E80FF11DE35A96
:10141000FF4FF0820B8FEA89FB898081806207C0D1
:10142000EE89FF896083E889F989808180648083FF
:1014300081E090E0DF91CF911F910F91FF90EF90AD
:101440000895CF93DF93EC01888D8823C9F0EA8952
:10145000FB89808185FD05C0A889B9898C9186FDAD
:101460000FC00FB607FCF5CF808185FFF2CFA889AA
:10147000B9898C9185FFEDCFCE010E948A01E7CF1B
:10148000DF91CF9108951F920F920FB60F92112402
:101490002F933F934F935F936F937F938F939F937C
:1014A000AF93BF93EF93FF9388E094E00E948A018B
:1014B000FF91EF91BF91AF919F918F917F916F912C
:1014C0005F914F913F912F910F900FBE0F901F9002
:1014D00018951F920F920FB60F9211242F938F938E
:1014E0009F93EF93FF93E0911804F091190480818A
:1014F000E0911E04F0911F0482FD12C09081809142
:1015000021048F5F8F7320912204821751F0E091A4
:101510002104F0E0E85FFB4F958F8093210401C028
:101520008081FF91EF919F918F912F910F900FBE2E
:101530000F901F90189586E291E09093DD038093C1
:10154000DC038CED93E00C94CE08CF93DF931092E4
:101550000B0410920A0488EE93E0A0E0B0E08093C0
:101560000C0490930D04A0930E04B0930F0428E094
:1015700031E0309309042093080425EC30E03093E7
:1015800015042093140424EC30E0309317042093C6
:10159000160420EC30E0309319042093180421EC59
:1015A00030E030931B0420931A0422EC30E0309397
:1015B0001D0420931C0426EC30E030931F0420937C
:1015C0001E041092210410922204109223041092FF
:1015D00024041092AB041092AC041092AD0410924B
:1015E000AE041092AF041092B0041092B1041092A5
:1015F000B2041092B3041092B4041092B504109285
:10160000B6041092B7041092B8041092B904109264
:10161000BA0420E52093B9031092BA031092F204A1
:101620001092F3041092F6041092F80442E050E095
:1016300060E070E04093F9045093FA046093FB0477
:101640007093FC041092100510921A05109219055F
:101650002AE131E0309318052093170510921C05FC
:101660001092DF031092DE038093E0039093E10376
:10167000A093E203B093E30386E291E09093DD034D
:101680008093DC031092F3031092F2031092F5039F
:101690001092F4031092F7031092F6031092F903DC
:1016A0001092F8036091FA036E7F6D7F6093FA03E6
:1016B0006695617081E0682783E00E94AB01E1EBF1
:1016C000F0E02491EDE9F0E08491882399F090E036
:1016D000880F991FFC01EA57FF4FA591B491FC01B7
:1016E000E458FF4F859194918FB7F894EC91E22BD9
:1016F000EC938FBFE1EBF0E0E491E093EC03EDE9D4
:10170000F0E0E491F0E0EE0FFF1FE458FF4F859109
:1017100094919093EE038093ED03E0EBF0E024913D
:10172000ECE9F0E084918823C1F090E0880F991FE4
:10173000FC01EA57FF4FC591D491FC01E458FF4FDB
:10174000A591B4919FB7F8948881E22FE0958E23FC
:1017500088838C91E823EC939FBF8091FA0381FDED
:1017600004C061E082E00E94AB0182E08093E80364
:10177000E0EBF0E0E491E093E903ECE9F0E0E491E0
:10178000F0E0EE0FFF1FE057FF4F8591949190938B
:10179000EB038093EA03E091BB03F091BC038091DB
:1017A000DE039091DF03938382838091E003909125
:1017B000E103A091E203B091E30384839583A683C0
:1017C000B7838091E4039091E503A091E603B09183
:1017D000E70380879187A287B387DF91CF91089530
:1017E000789484B5826084BD84B5816084BD85B5FC
:1017F000826085BD85B5816085BD80916E00816008
:1018000080936E00109281008091810082608093AD
:1018100081008091810081608093810080918000AF
:101820008160809380008091B10084608093B100DA
:101830008091B00081608093B00080917A008460D4
:1018400080937A0080917A00826080937A00809100
:101850007A00816080937A0080917A00806880931A
:101860007A001092C1001092E9041092EA041092DA
:10187000EB041092EC041092A7041092A8041092AA
:10188000A9041092AA0468EB7BE080E090E00E943B
:10189000410988E094E09093E8048093E7040E9473
:1018A000E4080E941C026093A7047093A80480932C
:1018B000A9049093AA0464E371E08091E7049091F5
:1018C000E8040E9468096AE070E080E090E00E940D
:1018D000410981E08093BB040E94E4081092F70361
:1018E0001092F6031092F5031092F4031092F30392
:1018F0001092F2038DE991E09093F9038093F8033D
:101900009091E803963108F057C02DEB30E030930A
:10191000F3032093F2032BE931E03093F503209396
:10192000F4032CE231E03093F7032093F603209187
:101930006800983050F031E09E3008F430E081E0EB
:1019400001C0880F3A95EAF701C084E0822B8093AA
:101950006800983038F09E3040F0963148F020E032
:1019600030E008C02DE630E005C02BE630E002C0D4
:101970002CE630E03093F0032093EF03983030F4FE
:1019800081E001C0880F9A95EAF70EC0292F30E058
:101990009E3018F42850310902C02E50310981E0E0
:1019A00001C0880F2A95EAF78093F1038091F8032C
:1019B0009091F9030197F1F78091F6039091F70365
:1019C000892B21F18091B7039091B80323E08C3DDE
:1019D0009207E1F0009711F00E94CE088091FA037F
:1019E0008E7F8093FA031092B6031092B5038CEDAC
:1019F00093E09093B8038093B703E091EF03F091E5
:101A0000F00390818091F103892B8083D4EFCD2E58
:101A1000DD24D394E12CF12C0E941C02672B682B4F
:101A2000692B41F40E941C02623071058105910509
:101A300008F405C10E941C0260930404709305041D
:101A40008093060490930704809000049090010412
:101A5000A0900204B0900304681579058A059B05DF
:101A600040F4609300047093010480930204909307
:101A700003048090000490900104A0900204B090B0
:101A800003049B01AC01281939094A095B09490182
:101A90005A013AEF83169104A104B10408F4CFC0AF
:101AA00060930004709301048093020490930304F4
:101AB000C092B304D092B404E092B504F092B6049C
:101AC0001092B7041092B8041092B9041092BA049C
:101AD0008091AB049091AC04A091AD04B091AE04A0
:101AE0008093AF049093B004A093B104B093B20478
:101AF0000E941C026093AB047093AC048093AD040D
:101B00009093AE040E941C026093A7047093A804F3
:101B10008093A9049093AA040E941C024B015C01CB
:101B200066E471E08091E7049091E8040E946809FE
:101B30002AE041E050E060E070E08091E70490919D
:101B4000E8040E947D096DE471E08091E7049091C2
:101B5000E8040E9468092AE0B501A4018091E70425
:101B60009091E8040E947D096FE471E08091E704A0
:101B70009091E8040E9468098091AB049091AC04B4
:101B8000A091AD04B091AE04B501A401481B590B5E
:101B90006A0B7B0B2AE08091E7049091E8040E9495
:101BA0007D096FE471E08091E7049091E8040E9460
:101BB00068094091AB045091AC046091AD04709100
:101BC000AE048091AF049091B004A091B104B091A3
:101BD000B204481B590B6A0B7B0B2AE08091E70487
:101BE0009091E8040E947D0961E571E08091E7042D
:101BF0009091E8040E9468090E941C02AB01BC019C
:101C00002AE08091E7049091E8040E947D0963E551
:101C100071E08091E7049091E8040E94C60965E0B4
:101C200070E080E090E00E9441090E941C026093F5
:101C3000AB047093AC048093AD049093AE04CFEFEB
:101C4000DFEF8091BB039091BC03DC01ED91FC912F
:101C50000084F185E02D0995181619060CF070C066
:101C60008091BB039091BC03DC01ED91FC91028457
:101C7000F385E02D0995823009F45FC0833009F0C7
:101C800051C05091DB03E0E0F0E060E070E0DB0188
:101C9000A554BC4F12969C911297292F30E02A33FD
:101CA000310514F0975301C0905313962C91A22F35
:101CB000B0E0DA9714F049EC01C040ED420F892FF3
:101CC00090E0E630F1056CF4DF01A550BC4F9C01BB
:101CD000C4E0220F331FCA95E1F7242B2C933196D1
:101CE00007C024E0880F991F2A95E1F7542F582B3D
:101CF0006E5F7F4F6C30710551F65093DB0390910E
:101D0000FD038091FC0389279091FE038927909120
:101D1000FF0389279091FB038927851311C06EE586
:101D200071E010C0CF3FBFEFDB0709F48ACFFE019F
:101D3000E554FC4F8283219684CFC0E0D0E081CF70
:101D40006AE571E088E094E00E94C6090E94CA003A
:101D500063CEA1E21A2EAA1BBB1BFD010DC0AA1F58
:101D6000BB1FEE1FFF1FA217B307E407F50720F004
:101D7000A21BB30BE40BF50B661F771F881F991F7F
:101D80001A9469F760957095809590959B01AC01C8
:101D9000BD01CF01089597FB072E16F4009407D0DC
:101DA00077FD09D00E94DF0E07FC05D03EF4909528
:101DB00081959F4F0895709561957F4F0895AA1B57
:101DC000BB1B51E107C0AA1FBB1FA617B70710F026
:101DD000A61BB70B881F991F5A95A9F78095909558
:101DE000BC01CD010895EE0FFF1F0590F491E02D89
:101DF000099481E090E0F8940C94FE0E10E0C2E6A5
:101E0000D0E004C0FE010E94F30E2196C336D10734
:061E1000C9F7F894FFCFB2
:101E1600FFFFFFFF00000000DA090C098D00210A10
:101E2600BE009C00B000000000002C060C098501D5
:101E3600840100000000ED000C098501EC00410161
:101E46005901D400564D4450565F317C315F564D92
:101E56004450560D0A00564D4450455F003A323AFA
:101E6600007C005F564D445045006E616F206C65E6
:041E760067616C0034
:00000001FF
