:100000000C946B000C9493000C9493000C94BE1110
:100010000C94BE110C94BE110C9493000C9493009C
:100020000C9493000C9493000C9493000C94930004
:100030000C9493000C9493000C9493000C949300F4
:100040000C94C3020C9493000C94FD010C94D70102
:100050000C9493000C9493000C9493000C949300D4
:100060000C940D030C949300000000002400270062
:100070002A0000000008000201000003040700003D
:100080000000000000007C3C3E5E2B3D3F2F5B5D8E
:100090003B2C2A225C0000000000250028002B00D9
:1000A00000000000230026002900040404040404C6
:1000B0000404020202020202030303030303010217
:1000C00004081020408001020408102001020408E6
:1000D00010208618CF1911241FBECFEFD8E0DEBF45
:1000E000CDBF26E0A2E2B2E001C01D92AE37B2075A
:1000F000E1F712E0A0E0B1E0E0E8F9E302C005902A
:100100000D92A232B107D9F710E0CAE6D0E004C0E0
:100110002197FE010E947A1AC936D107C9F70E94B9
:100120004E120C94B31C0C940000FC01538D448DB2
:10013000252F30E0842F90E0821B930B541710F092
:10014000CF96089501970895FC01918D828D98179F
:1001500061F0828DDF01A80FB11D5D968C91928DAB
:100160009F5F9F73928F90E008958FEF9FEF0895A8
:10017000FC01918D828D981731F0828DE80FF11D71
:10018000858D90E008958FEF9FEF0895FC01918D8C
:10019000228D892F90E0805C9F4F821B91098F7385
:1001A0009927089587ED94E00E94C60021E0892BED
:1001B00009F420E0822F0895FC01848DDF01A80F4F
:1001C000B11DA35ABF4F2C91848D90E001968F737F
:1001D0009927848FA689B7892C93A089B1898C919E
:1001E00080648C93938D848D981306C00288F38964
:1001F000E02D80818F7D80830895EF92FF920F9391
:100200001F93CF93DF93EC0181E0888F9B8D8C8DC2
:10021000981305C0E889F989808185FD24C0F62EF0
:100220000B8D10E00F5F1F4F0F731127E02E8C8D89
:10023000E8120CC00FB607FCFACFE889F989808173
:1002400085FFF5CFCE010E94DC00F1CF8B8DFE0142
:10025000E80FF11DE35AFF4FF0820B8FEA89FB890B
:100260008081806207C0EE89FF896083E889F9890F
:1002700080818064808381E090E0DF91CF911F9145
:100280000F91FF90EF900895CF93DF93EC01888D4D
:100290008823C9F0EA89FB89808185FD05C0A8898A
:1002A000B9898C9186FD0FC00FB607FCF5CF808110
:1002B00085FFF2CFA889B9898C9185FFEDCFCE015A
:1002C0000E94DC00E7CFDF91CF91089580E090E0BD
:1002D000892B29F00E94D20081110C94000008950E
:1002E00085ED8093BC008091BC0084FDFCCF109212
:1002F000A502089540917F02262F30E0240F311D82
:1003000021323105DCF42091A5022430C9F4FC012E
:1003100080E090E0861758F430917F022191DC0153
:10032000A35ABD4FA30FB11D2C930196F3CF80911B
:100330007F02680F60937F0280E0089581E0089556
:1003400082E0089508958FEF9FEF08958FEF9FEF5C
:10035000089580915C0290E09195819591090895AE
:10036000CF93DF9300D0CDB7DEB7CB01642F4983A5
:100370005A830E947A014981842F5A81952F0F90C8
:100380000F90DF91CF910895CF93DF931F92CDB758
:10039000DEB7698361E0CE0101960E947A0181E0B7
:1003A00090E00F90DF91CF9108950E94771C1F92EB
:1003B0000F920FB60F9211242F933F934F935F9399
:1003C0006F937F938F939F93AF93BF93EF93FF931D
:1003D00087ED94E00E94DC00FF91EF91BF91AF9117
:1003E0009F918F917F916F915F914F913F912F914D
:1003F0000F900FBE0F901F9018951F920F920FB67F
:100400000F9211242F938F939F93EF93FF93E0917B
:10041000E704F091E8048081E091ED04F091EE04AE
:1004200082FD12C090818091F0048F5F8F732091C4
:10043000F104821751F0E091F004F0E0E952FB4F33
:10044000958F8093F00401C08081FF91EF919F917F
:100450008F912F910F900FBE0F901F90189590E0E5
:10046000FC01EE58FF4F3491FC01E254FF4F249100
:10047000FC01E655FF4FE491EE2309F43BC0332322
:1004800039F1333091F038F43130A9F0323001F5E0
:1004900084B58F7D12C0373091F03830A1F0343000
:1004A000B9F4809180008F7D03C0809180008F77A8
:1004B000809380000DC084B58F7784BD09C0809182
:1004C000B0008F7703C08091B0008F7D8093B00023
:1004D000F0E0EE0FFF1FEA56FF4FA591B4918FB7E2
:1004E000F894EC91611103C020952E2301C02E2BAE
:1004F0002C938FBF0895CF93DF9390E0FC01E254DB
:10050000FF4F2491FC01E655FF4F8491882361F150
:1005100090E0880F991FFC01E859FF4FC591D491D5
:10052000FC01EA56FF4FA591B491611109C09FB734
:10053000F8948881209582238883EC912E230BC028
:10054000623061F49FB7F8943881822F80958323BD
:100550008883EC912E2B2C939FBF06C08FB7F89405
:10056000E8812E2B28838FBFDF91CF9108952FB77D
:10057000F8946091D0027091D1028091D202909152
:10058000D3022FBF08951F920F920FB60F9211241E
:100590002F933F938F939F93AF93BF938091D002FC
:1005A0009091D102A091D202B091D3023091CF02AA
:1005B00023E0230F2D3720F40196A11DB11D05C0A6
:1005C00026E8230F0296A11DB11D2093CF02809330
:1005D000D0029093D102A093D202B093D302809123
:1005E000CB029091CC02A091CD02B091CE020196A7
:1005F000A11DB11D8093CB029093CC02A093CD029C
:10060000B093CE02BF91AF919F918F913F912F9167
:100610000F900FBE0F901F9018951F920F920FB65C
:100620000F9211242F933F934F935F936F937F9378
:100630008F939F93AF93BF93EF93FF938091B900F4
:10064000887F803609F49CC068F5883209F45BC065
:1006500090F4803109F454C038F4882309F4F6C0CA
:10066000883009F44DC0F6C0883109F44CC080329E
:1006700009F45DC0EFC0803409F468C048F48033E9
:1006800009F455C0883309F0E5C08093A402D8C0AE
:10069000803509F44FC0883509F45DC0883409F00D
:1006A000D9C0D6C0883909F4C7C0A8F4883709F47E
:1006B00067C038F4883609F463C0803709F460C035
:1006C000C9C0883809F4B8C0803909F45FC08038DF
:1006D00009F0C0C05BC0803B09F486C038F4803AA2
:1006E00009F466C0883A09F47FC0B4C0803C09F4BC
:1006F000A7C0883C09F4A4C0883B09F48AC0AAC0FA
:100700008091CA0210C09091C9028091C8029817C6
:1007100070F5E091C90281E08E0F8093C902F0E08C
:10072000E855FD4F80818093BB0085EC86C08093A7
:10073000A4028EC0E091C90281E08E0F8093C902AD
:100740008091BB00F0E0E855FD4F80839091C90295
:100750008091C8026EC0E091C90281E08E0F809343
:10076000C9028091BB00F0E0E855FD4F8083809185
:10077000A70281116DC081E08093A60284EA61C066
:1007800083E08093A5021092A302CFCF8091A302B1
:10079000803208F051C0E091A30281E08E0F809377
:1007A000A3028091BB00F0E0ED57FD4F8083BDCFE9
:1007B00085EC8093BC001092A5028091A302803248
:1007C00030F4E091A302F0E0ED57FD4F108260910C
:1007D000A30270E0E0918102F091820283E892E04E
:1007E00009951092A30236C084E08093A50210926E
:1007F000800210927F02E0917D02F0917E020995C5
:1008000080917F02811105C081E080937F02109268
:100810005D02E091800281E08E0F80938002F0E023
:10082000E35AFD4F80818093BB00909180028091BC
:100830007F02981708F479CF85E88093BC000AC03E
:1008400085EC8093BC001092A50204C01092A40213
:100850000E947001FF91EF91BF91AF919F918F9195
:100860007F916F915F914F913F912F910F900FBEAC
:100870000F901F9018958091D6028823A9F140917E
:10088000000150910101609102017091030127ED77
:1008900032E08091D4029091D5020E94E00F811144
:1008A00002C080E008954091580250915902609131
:1008B0005A0270915B02411551056105710591F075
:1008C00027ED32E08091D4029091D5020E94E00F92
:1008D000882339F3109258021092590210925A024A
:1008E00010925B021092D60281E008958F929F923F
:1008F000AF92BF92EF92FF920F931F93CF934B0152
:100900005C01C42F8091000190910101A09102012E
:10091000B091030188159905AA05BB0501F10E9454
:100920003B04811102C080E020C087EDE82E82E008
:10093000F82E00E012E020E030E0B501A401809143
:10094000D4029091D5020E944C0F882361F38092CB
:10095000000190920101A0920201B09203018091E6
:10096000D602C82BC093D60281E0CF911F910F9180
:10097000FF90EF90BF90AF909F908F9008954F920F
:100980005F926F927F928F929F92AF92BF92CF921F
:10099000DF92EF92FF920F931F93CF93DF93EC01BF
:1009A0006A017B0128013901423051056105710559
:1009B00010F480E073C089859A85AB85BC8501966B
:1009C000A11DB11D84179507A607B70790F38B8863
:1009D0009C88AD88BE888F89803129F4BB27AF2DD4
:1009E0009E2D8D2D09C0DB01CA0147E0B695A79564
:1009F000979587954A95D1F7880E991EAA1EBB1E1A
:100A00008091000190910101A0910201B091030138
:100A100088169906AA06BB0679F48F898031A1F45D
:100A2000DD24EE24FF24C601880F991FFC01E95242
:100A3000FD4F5182408219C040E0C501B4010E94BF
:100A400076048111EACFB5CFE894C7F8DD24EE240F
:100A5000FF24C601880F991F880F991FFC01E952D6
:100A6000FD4F40825182628273828091D602816002
:100A70008093D6028A89823080F08D819E81AF81F9
:100A8000B885880E991EAA1EBB1E809258029092AD
:100A90005902A0925A02B0925B0281E0DF91CF919D
:100AA0001F910F91FF90EF90DF90CF90BF90AF908C
:100AB0009F908F907F906F905F904F9008958F924E
:100AC0009F92AF92BF92CF92DF92EF92FF920F93DD
:100AD0001F93CF93DF93FC0181859285A385B48515
:100AE0000196A11DB11D84179507A607B70710F43D
:100AF00080E05CC083899489A589B689C789C031A3
:100B000029F4852E962EA72EBB2409C04A015B012D
:100B1000C7E0B694A79497948794CA95D1F7E90152
:100B20006A017B018F01BC01CD01680D791D8A1D11
:100B30009B1D8090000190900101A0900201B09057
:100B40000301681579058A059B0599F4F8018789E1
:100B50008031A9F4B701A601552766277727440FEE
:100B6000551FFA01E952FD4F80819181A0E0B0E06C
:100B700018C040E00E9476048111E8CFB9CFB701D8
:100B8000A6014F77552766277727440F551F440F37
:100B9000551FFA01E952FD4F80819181A281B381F5
:100BA000BF7088839983AA83BB8381E0DF91CF9153
:100BB0001F910F91FF90EF90DF90CF90BF90AF907B
:100BC0009F908F9008954F925F926F927F92AF9215
:100BD000BF92CF92DF92EF92FF920F931F93CF932A
:100BE000DF9300D000D0CDB7DEB78C0149835A83A4
:100BF0006B837C835901C12CD12C7601412C82E07E
:100C0000582E612C712C49815A816B817C819E0107
:100C10002F5F3F4FC8010E945F05882351F1D30128
:100C2000C201F801058404C0880F991FAA1FBB1FC9
:100C30000A94D2F7C80ED91EEA1EFB1E49815A81BA
:100C40006B817C818789803129F088EF9FEFAFEF3E
:100C5000BFE004C088EF9FEFA0E0B0E0481759075D
:100C60006A077B0780F2F501C082D182E282F382BB
:100C700081E00F900F900F900F90DF91CF911F9117
:100C80000F91FF90EF90DF90CF90BF90AF907F904B
:100C90006F905F904F900895CF93DF93EC018D811B
:100CA0008823A1F18C8187FF2DC06E857F8588897F
:100CB000998941E00E947604882341F1EA8980E223
:100CC000E89FF0011124DF01A952BD4F1097F1F008
:100CD0008D81823050F44B895C896D897E895C9668
:100CE0004D935D936D937C935F978F89988DA98DBC
:100CF000BA8DE952FD4F938F828FB58BA48B8C8177
:100D00008F778C83DF91CF910C943B0480E0DF914F
:100D1000CF9108958F929F92AF92BF92CF92DF9220
:100D2000EF92FF920F931F93CF93DF93EC018D818E
:100D3000811102C080E077C00B891C892D893E8912
:100D40000417150726073707A8F36A017B018230CD
:100D500029F4CA86DB86EC86FD860DC0C114D10459
:100D6000E104F10451F41E821F82188619861A8646
:100D70001B861C861D8681E056C08A849B84AC84B9
:100D8000BD84EB8DFC8D258530E0275F3F4FB5019D
:100D9000A4014150510961097109022E04C07695E0
:100DA0006795579547950A94D2F7D701C6010197E1
:100DB000A109B10904C0B695A795979587952A957D
:100DC000D2F784179507A607B70720F089288A2845
:100DD0008B2849F44F89588D698D7A8D4E835F83B6
:100DE0006887798704C0841B950BA60BB70B4C0151
:100DF0005D018E010A5F1F4F81149104A104B104AB
:100E000009F4A7CF4E815F816885798598018B8D24
:100E10009C8D0E945F0591E0891A9108A108B10894
:100E20008111EACF87CFDF91CF911F910F91FF9072
:100E3000EF90DF90CF90BF90AF909F908F900895EC
:100E40002F923F924F925F926F927F928F929F92DA
:100E5000AF92BF92CF92DF92EF92FF920F931F93C8
:100E6000CF93DF9300D000D0CDB7DEB78C015B010C
:100E70001A01DC0115968C9115978130C9F41496EE
:100E80008C9181FF15C082FF1BC0F80143895489F2
:100E90006589768982859385A485B58584179507AC
:100EA000A607B70769F0C8010E948A06811108C029
:100EB00081E090E0F8019383828380E090E039C183
:100EC000610183C0D8015B968D919C915C97FC0178
:100ED000248121502A013B0139E07694679457948C
:100EE00047943A95D1F7722E74207A01F1E0FF22EF
:100EF000772009F476C080E092E08E199F094601C0
:100F00008C159D0508F44C01D8015B962D913C9100
:100F10005C9716968D919D910D90BC91A02D029796
:100F2000A109B109F901058404C0880F991FAA1FFE
:100F3000BB1F0A94D2F74685578560897189840F53
:100F4000951FA61FB71F9C01AD01270D311D411D27
:100F5000511D29013A01811432E0930609F088C03D
:100F60008091000190910101A0910201B0910301D3
:100F700084159505A605B70559F48FEF9FEFDC01A1
:100F80008093000190930101A0930201B0930301AB
:100F90009501B301A2018091D4029091D5020E94E3
:100FA000E00F882309F484CF9EEFB91AC818D90836
:100FB000F80182859385A485B585880D991DA11DAD
:100FC000B11D82879387A487B587D8011A964D9162
:100FD0005D916D917C911D97C114D10409F072CF80
:100FE00087C0E114F10409F086CF16964D915D910A
:100FF0006D917C911997411551056105710559F461
:1010000057968D919D910D90BC91A02D0097A105B3
:10101000B10541F521C09E012F5F3F4F0E945F0542
:10102000882309F44BCF89819A81AB81BC81F80177
:10103000238D348DF9012789203129F048EF5FEFA6
:101040006FEF7FE004C048EF5FEF60E070E084176F
:101050009507A607B70730F0C8010E947E0D8111E1
:101060004ACF26CFF80186839783A087B18743CFE5
:10107000E114F10429F5D8011A964D915D916D9115
:101080007C911D9753968D919D910D90BC91A02DB3
:10109000481759076A077B0798F00E943B0488238A
:1010A00009F406CF409200015092010160920201C2
:1010B000709203018091D60281608093D60208C0AD
:1010C00041E0C301B2010E947604882309F4F0CE06
:1010D000D501F701E952FD4FCF01880D991DE817A1
:1010E000F90719F02D912193FACFA80CB91C5ECF06
:1010F00053968D919D910D90BC91A02D84179507CD
:10110000A607B70740F4F801438B548B658B768BA9
:10111000848180688483D80114968C9183FD02C0F9
:10112000C10107C0C8010E944C06882309F4C0CE43
:10113000F7CF0F900F900F900F90DF91CF911F91ED
:101140000F91FF90EF90DF90CF90BF90AF909F9066
:101150008F907F906F905F904F903F902F90089569
:10116000CF93DF931F92CDB7DEB7698341E050E0A4
:10117000BE016F5F7F4F0E9420070F90DF91CF91DC
:101180000895CF93DF93EC010E944C06882311F061
:101190001D8281E0DF91CF910895CF92DF92EF928F
:1011A000FF920F931F93CF93DF936C017A018B0112
:1011B000C0E0D0E0CE15DF0589F0D8016D918D013A
:1011C000D601ED91FC910190F081E02DC6010995C9
:1011D000892B11F47E0102C02196ECCFC701DF916B
:1011E000CF911F910F91FF90EF90DF90CF900895D6
:1011F000CF93DF93EC016A8B809100019091010104
:10120000A0910201B09103018E879F87A88BB98BB3
:1012100080E2689FF0011124E952FD4F448955890D
:1012200060E070E0BA01552744274F8B588F698FD3
:101230007A8F828D938DA0E0B0E0482B592B6A2BDA
:101240007B2B4F8B588F698F7A8F8385887151F4F0
:10125000848D958DA68DB78D8B8B9C8BAD8BBE8B26
:1012600081E00EC0803111F080E015C09E012D5E3E
:101270003F4F8B8D9C8D0E94E3058823A9F384E06A
:101280008D8381E08C831E821F82188619861A86C0
:101290001B861C861D86DF91CF910895E7EDF4E053
:1012A000A089B18982E08C93A485B5851C92A6851E
:1012B000B7858FEC8C93108EA489B58986E08C93CA
:1012C000A289B3898C9180618C93A289B3898C9116
:1012D00088608C93A289B3898C9180688C930288F2
:1012E000F389E02D80818F7D80830895AF92BF9236
:1012F000CF92DF92EF92FF920F931F93CF93DF93E2
:10130000CDB7DEB72B970FB6F894DEBF0FBECDBFBB
:101310007C01CE0101966C01FC0190E28BE08C0D0A
:1013200091938E13FDCFDA0120E037E09D91992350
:1013300039F19E3219F0E6E8F0E00AC03A3009F4DB
:10134000AAC028E03AE0F2CF3196891709F4A3C089
:1013500084918111F9CF321708F49DC08FED890F68
:101360008E3508F098C081E0820FF601E20FF11D82
:101370002FE9290F2A3108F490529083282FD6CFD5
:101380008981803209F487C08B01FB01838D948DA4
:10139000F701948F838FFB011682178210861186C6
:1013A0001286138614861586A12CF80182859385F2
:1013B000A485B585438954896589768984179507FD
:1013C000A607B70708F067C025E0B695A7959795DB
:1013D00087952A95D1F7F82FFF70BF2EF8018581E8
:1013E000823008F458C0C8010E94801097FD53C095
:1013F000F80182859385A485B5854F96A11DB11D01
:1014000082879387A487B587F0E2BF9EC00111242D
:10141000BC0169527D4F61157105E9F1FB01208125
:101420002223B9F1253EE1F04BE050E0C6010E94D5
:101430007C1C892B09F0B9CF6B2DC7012B960FB6F9
:10144000F894DEBF0FBECDBFDF91CF911F910F91FA
:10145000FF90EF90DF90CF90BF90AF900C94F80882
:10146000A11014C0F701B28A40910001509101010E
:10147000609102017091030146875787608B718BE1
:10148000FC01E952FD4F8081882329F0AA24A3940E
:101490008CCFAA2039F380E02B960FB6F894DEBFEC
:1014A0000FBECDBFDF91CF911F910F91FF90EF90B5
:1014B000DF90CF90BF90AF900895CF93DF93FC0162
:1014C0002581222311F080E049C0EC018091E105E3
:1014D0008031C1F482E08583178A108E118E128EBE
:1014E0008091E2059091E305A0E0B0E025E0880F4F
:1014F000991FAA1FBB1F2A95D1F7838B948BA58BAD
:10150000B68B19C08032F9F683E085834091E405FB
:101510005091E5056091E6057091E705478B508F86
:10152000618F728F9F012D5E3F4F8AEC95E00E9484
:10153000E305882341F28AEC95E09C8F8B8F81E054
:101540008C831E821F82188619861A861B861C862B
:101550001D861E861F86188A198A1A8ADF91CF91E6
:1015600008958F929F92AF92BF92CF92DF92EF92A7
:10157000FF92CF93DF93C82F8EEB95E09093D50227
:101580008093D402CC2369F1C53010F080E00DC106
:1015900040E060E070E0CB010E9476048823B1F364
:1015A00020E1C29FC001112489539D4FFC01E254E8
:1015B000FE4F20812F7751F73C9640815181628107
:1015C0007381443651056105710500F33497C0807D
:1015D000D180E280F380C114D104E104F10421F44C
:1015E000D5CFC12CD12C760140E0C701B6010E94B5
:1015F0007604882359F28091E2029091E3028115EA
:10160000924021F6A091E702AA2309F4BFCF60918E
:10161000E5027091E6026115710509F4B7CF2091DA
:10162000E402222309F4B2CFA093DC052093CE0577
:1016300080E030E0E1E0F0E0C82FAF01082E02C00A
:10164000440F551F0A94E2F72417350741F0982FED
:101650008F5F983089F789E08093D70597CF809383
:10166000D7052091ED023091EE022115310519F0D8
:1016700040E050E008C02091FB023091FC02409114
:10168000FD025091FE022093CF053093D005409388
:10169000D1055093D20546015701860E971EA11C15
:1016A000B11C8092DD059092DE05A092DF05B0921C
:1016B000E005E091E802F091E902F093E305E093A0
:1016C000E205B0E00E94011A860E971EA81EB91E00
:1016D0008092E4059092E505A092E605B092E705B8
:1016E00085E0EE0FFF1F8A95E1F7E150FE4FEF2FE7
:1016F000FF27E6958E0E9F1EA11CB11C8092D80577
:101700009092D905A092DA05B092DB052091EA0209
:101710003091EB022115310521F0A90160E070E064
:1017200008C04091F7025091F8026091F90270915F
:10173000FA02D701C60188199909AA09BB09840FC1
:10174000951FA61FB71F04C0B695A79597958795B7
:10175000CA95D2F78093D3059093D405A093D5056D
:10176000B093D605853F2FE09207A105B10510F48F
:101770008CE018C0853F9F4FA105B10510F480E1B2
:1017800011C08091030390910403A0910503B091CF
:1017900006038093E4059093E505A093E605B093D6
:1017A000E70580E28093E10581E0DF91CF91FF9032
:1017B000EF90DF90CF90BF90AF909F908F90089563
:1017C0008F929F92AF92BF92CF92DF92EF92FF9251
:1017D0006B017C010E94B7024B015C01C60ED71E53
:1017E000E81EF91E0E94B702681579058A059B0557
:1017F00028F0C616D706E806F906A0F7FF90EF9086
:10180000DF90CF90BF90AF909F908F90089561151B
:10181000710579F0FB0101900020E9F73197AF01E4
:10182000461B570BDC01ED91FC910280F381E02D0A
:10183000099480E090E008954F925F926F927F92BA
:10184000EF92FF920F931F93CF93DF93CDB7DEB745
:10185000A1970FB6F894DEBF0FBECDBF7C01FA0191
:10186000CB0119A2223008F42AE08E010F5D1F4F30
:10187000422E512C612C712CBF01A30192010E94B8
:10188000DF19F901CA01015011096A3014F4605DD1
:1018900001C0695CD8016C93232B242B252B61F7A5
:1018A000B801C7010E94070CA1960FB6F894DEBFDD
:1018B0000FBECDBFDF91CF911F910F91FF90EF90A1
:1018C0007F906F905F904F9008950F931F93CF93E9
:1018D000DF93EC010E94070C8C016EE871E0CE01F1
:1018E0000E94070C800F911FDF91CF911F910F91E4
:1018F0000895DC015996ED91FC915A973097B9F013
:1019000083899489A589B6894285538564857585BF
:10191000841B950BA60BB70B811520E89207A10538
:10192000B10538F08FEF9FE7A0E0B0E0089580E0C8
:1019300090E00895CF93DF931F92CDB7DEB7698310
:10194000DC01ED91FC910280F381E02D41E050E05B
:10195000BE016F5F7F4F09950F90DF91CF91089582
:1019600020912402309125022817390771F49091B3
:10197000220280912302981741F0E0912202F0E0C8
:10198000E85CF94F808190E008958FEF9FEF089514
:1019900008951F93CF93DF93DC015C962D913C91CA
:1019A0005D972115310539F481E090E013969C9301
:1019B0008E9312973DC05196ED91FC91529750969F
:1019C0009C915097892F80951FB75E964C915E979A
:1019D00041FB772770F941FD6095F89440817723AA
:1019E00011F0492B01C048234083E9012197F1F709
:1019F00048E0508160FF02C0592B01C0582350833A
:101A0000E9012197F1F76695415099F7772321F085
:101A100090818923808303C08081982B90831FBF8E
:101A20005C968D919C915D970197F1F721E030E0F4
:101A3000C901DF91CF911F91089520912402309127
:101A400025022817390771F4809123022091220280
:101A500090E0805C9F4F821B910960E470E00E94DF
:101A6000521A089580E090E0089520912402309168
:101A7000250228173907B9F4909122028091230298
:101A8000981789F0E0912202F0E0E85CF94F80813C
:101A90002091220230E02F5F3F4F2F733327209396
:101AA000220290E008958FEF9FEF0895089580E05F
:101AB00090E00895FC01818D928D009711F00C94B7
:101AC0004C060895CF93DF93EC01898D9A8D009792
:101AD00039F481E090E09B838A8380E090E00BC042
:101AE000FC01138212820E942007E98DFA8D228167
:101AF0003381232B71F7DF91CF9108953F924F925D
:101B00005F926F927F928F929F92AF92BF92CF928D
:101B1000DF92EF92FF920F931F93CF93DF93CDB796
:101B2000DEB72C970FB6F894DEBF0FBECDBF5C01B9
:101B3000DC015B968D909C905C971696CD90DD9025
:101B4000ED90FC901997C114D104E104F10439F02F
:101B5000BFEFCB1ADB0AEB0AFB0A312C07C0F401FA
:101B6000C080D180E280F38033243394F4018185F6
:101B70009285A385B4859C01AD012F5F3F4F4F4FE8
:101B80005F4F29873A874B875C87260137011D8283
:101B90001E821F821886F40181859285A385B485F3
:101BA0002D813E814F815885281739074A075B07E9
:101BB00008F063C089859A85AB85BC858C159D0529
:101BC000AE05BF0550F482E0C82ED12CE12CF12CDB
:101BD00092E0492E512C612C712C9E012F5F3F4FBA
:101BE000B701A601C4010E945F05882309F445C01E
:101BF00089819A81AB81BC81892B8A2B8B2B41F007
:101C0000260137019FEF491A590A690A790A05C066
:101C1000C414D504E604F70491F02D813E814F8170
:101C200058852F5F3F4F4F4F5F4F2D833E834F832C
:101C300058873FEFC31AD30AE30AF30AACCF0FEF7A
:101C40001FEF2FEF3FE0B301A201C4010E94BF04C8
:101C5000882399F0D50116964D915D916D917C91F7
:101C60001997411551056105710549F093018201EC
:101C7000C4010E94BF04811102C080E02AC0D501C6
:101C800016964D925D926D927C921997332051F089
:101C9000D301C2010196A11DB11DF401808391837E
:101CA000A283B383F5018789908DA18DB28D892B95
:101CB0008A2B8B2B69F4D50157964D925D926D92CC
:101CC0007C925A9714968C911497806814968C93F2
:101CD00081E02C960FB6F894DEBF0FBECDBFDF912A
:101CE000CF911F910F91FF90EF90DF90CF90BF9019
:101CF000AF909F908F907F906F905F904F903F90AC
:101D000008958FB7F894809179068FBF089561E0A8
:101D1000FC0184810E942F0280917806811110922B
:101D2000780608958EBD00000DB407FEFDCF8EB578
:101D300008958FEF0C94920E0F931F93CF93DF9320
:101D4000EB010E94B7028B010E94990E8F3F49F070
:101D50000E94B702601B710B6C177D07A8F380E02F
:101D600001C081E0DF91CF911F910F910895CF9332
:101D7000DF93EC018E81882389F08F8198859C0107
:101D80002F5F3F4F38872F838230924018F40E9494
:101D9000990EF3CFCE010E94870E1E82DF91CF9164
:101DA00008958CBD9DBD0895CF93DF93EC01809184
:101DB0007806811109C081E0809378068091BC0586
:101DC0009091BD050E94D10E60E08C81DF91CF9192
:101DD0000C942F02CF92DF92FF920F931F93CF9319
:101DE000DF9300D000D0CDB7DEB76C01F62E29838B
:101DF0003A834B835C830E94B70EC6010E94D40EC7
:101E00006CE271E0C6010E949C0E8F2D80640E94DE
:101E1000920E08E110E05C814B813A812981DA0160
:101E2000C901002E04C0B695A795979587950A9489
:101E3000D2F729833A834B835C830E94920E085029
:101E4000110929813A814B815C81083F8FEF180786
:101E500031F7FF2029F0E8E0FE1204C087E803C054
:101E600085E901C08FEF0E94920E10E00E94990E4A
:101E7000F601828787FF04C01F3F11F01F5FF6CF76
:101E80000F900F900F900F90DF91CF911F910F91B6
:101E9000FF90DF90CF900895AF92BF92CF92DF92E4
:101EA000EF92FF920F931F93CF93DF93EC016901A1
:101EB000C801820F931F8130924008F070C08E815C
:101EC000882371F088819981AA81BB8148175907BD
:101ED0006A077B0729F48F819885C816D906B0F563
:101EE000488359836A837B838B85833039F089E00B
:101EF000440F551F661F771F8A95D1F79A01AB01D2
:101F000061E1CE010E94EA0E882319F083E08D83FF
:101F100046C00E94B7025B010E94990E8A878F3FDC
:101F200049F40E94B7026A197B096D327140A0F32F
:101F30008FE003C08E3F31F08DE08D83CE010E9493
:101F4000870E2DC018861F8281E08E838F81988531
:101F50008C159D0540F40E94990E8F8198850196FD
:101F600098878F83F3CF6701E00EF11ECE14DF0454
:101F700031F00E94990EF60181936F01F7CF8F81A6
:101F80009885080F191F18870F838985882319F0F2
:101F90000115124048F0CE010E94B70E05C0CE01D7
:101FA0000E94870E80E001C081E0DF91CF911F91F8
:101FB0000F91FF90EF90DF90CF90BF90AF9008957A
:101FC000EF92FF920F931F93CF93DF93EC01790170
:101FD000411551056105710511F482E13CC08B8505
:101FE000833039F089E0440F551F661F771F8A95AB
:101FF000D1F79A01AB0168E1CE010E94EA0E882375
:1020000011F084E028C08EEF0E94920E87018EEFBF
:10201000F81AF80181918F010E94920E0E151F058A
:10202000C1F78FEF0E94920E8FEF0E94920E0E94D6
:10203000990E8A878F71853031F081E18D83CE01D1
:102040000E94870E09C068E572E0CE010E949C0ED6
:10205000811107C085E18D83CE010E94870E80E04B
:1020600013C020E030E0A9016DE0CE010E94EA0E2D
:10207000811104C00E94990E882311F084E1EBCFF6
:10208000CE010E94870E81E0DF91CF911F910F91C9
:10209000FF90EF900895EF92FF920F931F93CF93CD
:1020A000DF93EC017B018A011B821A8288EE93E0A8
:1020B000A0E0B0E08C839D83AE83BF838FE091E08E
:1020C000998388838DE190E00E94801A9A8F898F8E
:1020D000009779F02DE1F701DC0101900D922A952E
:1020E000E1F74CE050E0B801CE010C960E94A41C30
:1020F000188EDF91CF911F910F91FF90EF9008956F
:102100002F923F924F925F926F927F928F929F9207
:10211000AF92BF92CF92DF92EF92FF920F931F93F5
:10212000CF93DF9300D0CDB7DEB7FC018581882344
:1021300009F4D9C0848180FFD6C021E02A83438975
:1021400054896589768982859385A485B5854817E4
:1021500059076A077B0709F41A826F013A81832FB6
:1021600090E0DE0111964D013F01B6E06B0E711C4F
:10217000892B09F47DC0D6011A964D915D916D9120
:102180007C911D975A01B1E0BB22F60125811A010D
:102190002B0189E056944794379427948A95D1F778
:1021A000838D948D223061F4FC01828D938DA48DFA
:1021B000B58DBC01CD01620D731D841D951D45C0FB
:1021C000DC0114961C9111501221A114B104D1F418
:1021D000111118C0452B462B472B51F4F601878966
:1021E000908DA18DB28D86839783A087B1870AC019
:1021F000468157816085718593010E945F05882320
:1022000009F471C0F601238D348D86819781A085F4
:10221000B1850297A109B109AC01BD01F90105849D
:1022200004C0440F551F661F771F0A94D2F7868596
:102230009785A089B189840F951FA61FB71FBC0180
:10224000CD01610F711D811D911DD60114962C9138
:1022500026FF14C00091000110910101209102019C
:1022600030910301601771078207930751F506C08B
:10227000FA81FF23C1F1898190E037C040E00E94DC
:102280007604882381F1F501E952FD4FD401CF0195
:102290000196E817F90719F021912D93FACFEFEF86
:1022A0008E1A9E0AF60182859385A485B5850196CE
:1022B000A11DB11D82879387A487B58780E090E038
:1022C00057CF740101E010E09501AB01BC01809192
:1022D000D4029091D5020E944C0F882321F0BFEFC9
:1022E0008B1A9B0ADFCF8FEF9FEF0F900F90DF913C
:1022F000CF911F910F91FF90EF90DF90CF90BF9003
:10230000AF909F908F907F906F905F904F903F9095
:102310002F900895FC01818D928D009711F00C94FF
:1023200080108FEF9FEF08950F931F93CF93DF934C
:10233000FC01818D928D0097B9F0EF010E94801011
:102340008C010F3F8FEF180791F0898D9A8DFC015A
:10235000428553856485758541505109610971092C
:102360000E948A06C80105C080E090E002C08FEF9D
:102370009FEFDF91CF911F910F9108951F920F92C0
:102380000FB60F9211242F933F934F935F936F9348
:102390007F938F939F93AF93BF93EF93FF93E091BE
:1023A0002402F0912502309709F451C0968DA6853C
:1023B000B785858591FF04C09C91892329F447C086
:1023C0009C91892309F043C0A389B4899C91858994
:1023D000809589238C93868997890197F1F7608D81
:1023E000718DA685B785558538E020E0CB01019732
:1023F000F1F7822F90E095958795282F4C914523F2
:1024000009F02068315091F7868D81FD20958091EB
:10241000230290E001968F7399273091220238179A
:1024200049F0A0912302B0E0A85CB94F2C938093AF
:10243000230203C0868D8160868F828D938D0197E4
:10244000F1F7A389B4899C918589892B8C93FF919D
:10245000EF91BF91AF919F918F917F916F915F911C
:102460004F913F912F910F900FBE0F901F90189595
:10247000E0912402F0912502E817F90769F4A38995
:10248000B4899C918589809589238C93109225022B
:102490001092240281E0089580E00895CF93DF93A5
:1024A000CDB7DEB7C557D1090FB6F894DEBF0FBE62
:1024B000CDBF789484B5826084BD84B5816084BDCD
:1024C00085B5826085BD85B5816085BD80916E00D2
:1024D000816080936E001092810080918100826003
:1024E0008093810080918100816080938100809140
:1024F00080008160809380008091B100846080932F
:10250000B1008091B00081608093B00080917A002A
:10251000846080937A0080917A00826080937A0050
:1025200080917A00816080937A0080917A0080683F
:1025300080937A001092C1001092B8051092B905EC
:102540001092BA051092BB0510927605109277058D
:10255000109278051092790568EB7BE080E090E0BE
:102560000E94E00B87ED94E09093B7058093B60549
:102570000E944E090E94B70260937605709377051A
:1025800080937805909379056FE771E08091B605A7
:102590009091B7050E94070C6AE070E080E090E03F
:1025A0000E94E00B81E080938A050E944E0961E958
:1025B00071E087ED94E00E94650C1092280610925D
:1025C00027061092260610922506109224061092D5
:1025D00023068DE991E090932A0680932906909135
:1025E0001906963108F057C02DEB30E030932406E1
:1025F000209323062BE931E030932606209325060D
:102600002CE231E0309328062093270620916800C1
:10261000983050F031E09E3008F430E081E001C0A5
:10262000880F3A95EAF701C084E0822B8093680016
:10263000983038F09E3040F0963148F020E030E09D
:1026400008C02DE630E005C02BE630E002C02CE6E5
:1026500030E03093210620932006983030F481E05A
:1026600001C0880F9A95EAF70EC0292F30E09E30FE
:1026700018F42850310902C02E50310981E001C000
:10268000880F2A95EAF78093220680912906909177
:102690002A060197F1F78091270690912806892B49
:1026A00021F1809124029091250226E08D3092073D
:1026B000E1F0009711F00E94381280912B068E7F76
:1026C00080932B0610922302109222028DE096E056
:1026D0009093250280932402E0912006F091210638
:1026E000908180912206892B80838091ED0588233B
:1026F00021F088EE95E00E94C1081092C905109261
:10270000C7051092C4051092C30584E08093C205EA
:102710000E94B7027B0161E08091C2050E947B02AA
:1027200061E08091C2050E942F020FB7F89480915A
:102730002602811127C0E4EBF0E08491E8ECF0E0A0
:102740009491E82FF0E0EE0FFF1FE859FF4FA5919D
:10275000B491EC91E92321F461E08AE00E942F0218
:1027600061E08AE00E947B028CB580618CBD8CB5F3
:1027700080648CBD61E08DE00E947B0261E08BE0B3
:102780000E947B02809126028F5F809326020FBFFA
:1027900082E58093BC051092BD058091BC059091A7
:1027A000BD050E94D10E0AE08FEF0E94920E0150EB
:1027B000D9F78EEB95E00E94D40E20E030E0A9011D
:1027C00060E08EEB95E00E94EA0E082F8093C8052A
:1027D000813049F00E94B7026E197F09613D774050
:1027E00060F381E054C02AEA31E040E050E068E064
:1027F0008EEB95E00E94EA0E82FF03C00093C905AC
:102800000EC004E00E94990E8093C8050150D1F7D4
:102810008A3A11F082E03BC082E08093C905809142
:10282000C905823021F0812C912C540105C0812CE6
:10283000912CA12CF0E4BF2E20E030E0A90167E349
:102840008EEB95E00E94EA0EA501940169E28EEB01
:1028500095E00E94EA0E8093C805882349F00E9403
:10286000B7026E197F09613D774030F388E00FC0F1
:102870008091C905823001F520E030E0A9016AE3CA
:102880008EEB95E00E94EA0E882341F086E080936B
:10289000C3058EEB95E00E94870E32C00E94990E10
:1028A000807C803C19F483E08093C9050E94990ED6
:1028B0000E94990E0E94990E8EEB95E00E94870E61
:1028C00080E58093BC051092BD0581E00E94B10AAD
:1028D000882389F088EE95E00E945D0A882381F0C4
:1028E0001E015BE0250E311CE8EE4E2EE3E05E2E6D
:1028F000612C712C8BC080E00E94B10A8111EACF5B
:102900006FE971E087ED94E00E94650C69EB71E07E
:1029100087ED94E00E94650CFFCFCE01885A9F4F4F
:10292000E6962FAFE6972111C3C30E948A11E6965F
:102930002FADE6978A3209F4D2C3833209F0A9C3D6
:10294000FE013196A6E4B2E080818A3308F49DC38B
:10295000875390E021812A3308F499C3275334E048
:10296000880F991F3A95E1F7282B2D933296E2159F
:10297000F30551F790914B02809146029813ADC335
:1029800090914C02809147029813A7C390914D02F9
:10299000809148029813A1C390914E028091490200
:1029A00098139BC390914F0280914A0221E00FEF50
:1029B0001FEF981302C0FF24F394CE01885A9F4F53
:1029C000E6962FAFE6970E94790CE6962FADE69734
:1029D000181619060CF4A1CFE3968EAD9FADE397C0
:1029E000009741F00E94C108E3968EAD9FADE3973A
:1029F0000E94151BFF2009F47EC364EF71E087ED90
:102A000094E00E94650C11E00E9466010E94B702EA
:102A1000672B682B692B41F40E94B7026230710565
:102A20008105910508F409C10E94B7026093540220
:102A3000709355028093560290935702C0905002B3
:102A4000D0905102E0905202F09053026C157D0537
:102A50008E059F0540F4609350027093510280935D
:102A6000520290935302C0905002D0905102E090D5
:102A70005202F09053029B01AC012C193D094E0902
:102A80005F0969017A013AEFC316D104E104F10448
:102A900008F4D3C0609350027093510280935202A5
:102AA0009093530284EF91E0A0E0B0E08093820520
:102AB00090938305A0938405B093850510928605B5
:102AC00010928705109288051092890580917A05E9
:102AD00090917B05A0917C05B0917D0580937E054A
:102AE00090937F05A0938005B09381050E94B70263
:102AF00060937A0570937B0580937C0590937D05A8
:102B00000E94B702609376057093770580937805ED
:102B1000909379050E94B7026B017C0168EC71E02B
:102B20008091B6059091B7050E94070C2AE041E01C
:102B300050E060E070E08091B6059091B7050E948A
:102B40001C0C6FEC71E08091B6059091B7050E9466
:102B5000070C2AE0B701A6018091B6059091B70550
:102B60000E941C0C61ED71E08091B6059091B70553
:102B70000E94070C80917A0590917B05A0917C05BD
:102B8000B0917D05B701A601481B590B6A0B7B0B61
:102B90002AE08091B6059091B7050E941C0C61ED6A
:102BA00071E08091B6059091B7050E94070C4091A5
:102BB0007A0550917B0560917C0570917D0580912F
:102BC0007E0590917F05A0918005B0918105481BFD
:102BD000590B6A0B7B0B2AE08091B6059091B705E3
:102BE0000E941C0C63ED71E08091B6059091B705D1
:102BF0000E94070C0E94B702AB01BC012AE0809141
:102C0000B6059091B7050E941C0C65ED71E08091AE
:102C1000B6059091B7050E94650C65E070E080E014
:102C200090E00E94E00B0E94B70260937A057093D7
:102C30007B0580937C0590937D058DE096E00E9456
:102C40001D0D181619060CF059C2EE24EA94FE2C3C
:102C50008DE096E00E941D0D181619060CF05CC060
:102C60008DE096E00E94350D823009F452C0833029
:102C700009F042C0A091270240E050E020E030E09F
:102C8000F901E85DFD4F8081682F70E06A337105BE
:102C900014F0875301C0805390E0E1816E2F70E003
:102CA0006A33710514F069EC01C060ED6E0F74E0D9
:102CB000880F991F7A95E1F74530510544F4FA01E0
:102CC000E55BFD4F862B80834F5F5F4F02C0A62FD1
:102CD000A82B2E5F3F4F2C30310591F6A093270291
:102CE000EBE4F2E080E09191892792E0E035F9078A
:102CF000D1F78A1303C213C0AFEFEA16FA0609F43C
:102D0000A7CFF701E85DFD4F8083F70131967F0182
:102D10009FCFE12CF12C9CCF112309F4EFC10BE4E0
:102D200012E0D8014D918D0150E060E070E020E1AB
:102D300087ED94E00E941C0C6CED71E087ED94E04F
:102D40000E94070CB2E000351B0759F76EE871E0EE
:102D500087ED94E00E94070CA0900706B09008064B
:102D600019A218A287E491E09F8F8E8F1BA21C826C
:102D70001B829A8389831E82CE014E960E945D0A31
:102D80006501FE0131964F018E01025E1F4F6FE219
:102D900070E0C6010E94921C009709F441C0D60160
:102DA0002C912F3221F4BFEFCB1ADB0AF0CF8C1914
:102DB0008D3008F08CE0E82EF12CA701B601CE0191
:102DC000885A9F4F0E94A41CE8E5F0E0EC0FFD1F1D
:102DD000EE0DFF1D1082C4010E94C108F40185811F
:102DE000882351F01EAE1DAE87E491E09CAF8BAFFF
:102DF00021961FAE21976FC0AE01485A5F4FB801B0
:102E0000C4010E947609882369F3CE0CDF1CC80137
:102E10000E94C108902F812F8401892E982EB7CF50
:102E200096012A193B09E5963FAF2EAFE597D801E9
:102E300012968D919C9113979EAF8DAF87E491E090
:102E40009CAF8BAF14968C9114978FAF15968C9185
:102E5000159721968FAF219716968D919D910D9084
:102E6000BC91A02D25968CAF9DAFAEAFBFAF25977F
:102E7000F80182859385A485B58529968CAF9DAF91
:102E8000AEAFBFAF299786859785A089B1892D966A
:102E90008CAF9DAFAEAFBFAF2D9782892E968FAF0F
:102EA0002E9783899489A589B68962968CAF9DAF48
:102EB000AEAFBFAF62978789908DA18DB28D6696B8
:102EC0008CAF9DAFAEAFBFAF6697838D948D689684
:102ED0009FAF8EAF6897E5960EAD1FADE5970A0DD3
:102EE0001B1DD8018C9181114DC08DAD9EAD9C8371
:102EF0008B8387E491E09A8389838FAD8D832196BC
:102F00008FAD21978E8325968CAD9DADAEADBFADB7
:102F100025978F839887A987BA8729968CAD9DAD11
:102F2000AEADBFAD29978B879C87AD87BE872D96A9
:102F30008CAD9DADAEADBFAD2D978F87988BA98B16
:102F4000BA8B2E968FAD2E978B8B62968CAD9DADE6
:102F5000AEADBFAD62978C8B9D8BAE8BBF8B6696F3
:102F60008CAD9DADAEADBFAD6697888F998FAA8FA2
:102F7000BB8F68968EAD9FAD68979D8F8C8F4EED01
:102F800051E06DC019A218A247E4E42E41E0F42EEE
:102F9000FF8EEE8E1BA221968FAD2197811118C056
:102FA0006C961FAE1EAE6C97A0964CAE5DAE6EAE2C
:102FB0007FAEA0978FE091E06A969FAF8EAF6A9741
:102FC000E3961FAE1EAEE397A5961FAEA5974FC022
:102FD000A801BE01655C7F4FCE014E960E94760926
:102FE0008823F1F2CE01CB960E94C10888A199A155
:102FF0009C838B83FA82E9828AA18D838BA18E8345
:103000008CA19DA1AEA1BFA18F839887A987BA8704
:1030100088A599A5AAA5BBA58B879C87AD87BE87E8
:103020008CA59DA5AEA5BFA58F87988BA98BBA8BC4
:1030300088A98B8B89A99AA9ABA9BCA98C8B9D8BDC
:10304000AE8BBF8B8DA99EA9AFA9B8AD888F998F84
:10305000AA8FBB8F89AD9AAD9D8F8C8FA801BE01C1
:103060006F5F7F4FCE01885A9F4F0E944B10E396AF
:10307000EEADFFADE3973097C1F185818823A9F1CB
:1030800020E00FEF1FEFF12C98CC805362CC20533F
:1030900066CC0F3FBFEF1B0709F48FCCE1E0F0E0F7
:1030A000EC0FFD1FE00FF11F80830F5F1F4F85CCDA
:1030B0000E948A11E6962FADE697833281F08B331A
:1030C00021F4F11089CC20E00DC00F3FEFEF1E0777
:1030D00009F473CC0F5F1F4F70CC21E003C000E0F8
:1030E00010E06BCC0FEF1FEF68CC60EE71E087ED66
:1030F00094E00E94650C6BEF71E081CC68E072E0B7
:1031000087ED94E00E94650C10E07ECC1092DA040A
:103110001092D90488EE93E0A0E0B0E08093DB0445
:103120009093DC04A093DD04B093DE0423E231E04D
:103130003093D8042093D70425EC30E03093E40496
:103140002093E30424EC30E03093E6042093E5047C
:1031500020EC30E03093E8042093E70421EC30E0E9
:103160003093EA042093E90422EC30E03093EC043D
:103170002093EB0426EC30E03093EE042093ED0432
:103180001092F0041092F1041092F2041092F304E1
:1031900010922F0610922E068093300690933106DF
:1031A000A0933206B093330625E331E030932D0629
:1031B00020932C0610927A0510927B0510927C05C4
:1031C00010927D0510927E0510927F051092800569
:1031D0001092810510928205109283051092840549
:1031E0001092850510928605109287051092880529
:1031F0001092890520E52093BC051092BD05109220
:10320000C3051092C4051092C7051092C90542E08B
:1032100050E060E070E04093CA055093CB056093A6
:10322000CC057093CD051092E1051092EB0510923C
:10323000EA0527E431E03093E9052093E805109290
:10324000ED051092100610920F06809311069093D0
:103250001206A0931306B093140683E591E09093B1
:103260000E0680930D0610922406109223061092EB
:103270002606109225061092280610922706109214
:103280002A061092290660912B066E7F6D7F60934F
:103290002B066695617081E0682783E00E942F020B
:1032A00061E083E00E947B02E1ECF0E0E491E093D6
:1032B0001D06EDEAF0E0E491F0E0EE0FFF1FEA56A4
:1032C000FF4F8591949190931F0680931E0660E0B6
:1032D00082E00E947B0280912B0681FD04C061E0A8
:1032E00082E00E942F0282E080931906E0ECF0E079
:1032F000E491E0931A06ECEAF0E0E491F0E0EE0FDE
:10330000FF1FE056FF4F8591949190931C06809388
:103310001B06109208061092070610920A061092D9
:10332000090610920C0610920B066BE070E080E02C
:1033300090E00E94AD1B009799F09093080680934F
:1033400007062AE030E030930A0620930906209110
:103350000B0630910C06232BC1F4FC01108215C022
:103360008091070690910806009711F00E94151BA6
:10337000109208061092070610920C0610920B0687
:1033800010920A061092090608952AE030E0309360
:103390000C0620930B0666E172E00C949D1C809154
:1033A0000706909108060E94151B83E591E0909313
:1033B0000E0680930D068DE096E00C943812A1E283
:1033C0001A2EAA1BBB1BFD010DC0AA1FBB1FEE1F9F
:1033D000FF1FA217B307E407F50720F0A21BB30BEA
:1033E000E40BF50B661F771F881F991F1A9469F766
:1033F00060957095809590959B01AC01BD01CF01C2
:1034000008950E94431AA59F900DB49F900DA49F0C
:10341000800D911D112408952F923F924F925F923B
:103420006F927F928F929F92AF92BF92CF92DF92D4
:10343000EF92FF920F931F93CF93DF93CDB7DEB739
:10344000CA1BDB0B0FB6F894DEBF0FBECDBF0994CD
:103450002A88398848885F846E847D848C849B8424
:10346000AA84B984C884DF80EE80FD800C811B8132
:10347000AA81B981CE0FD11D0FB6F894DEBF0FBE61
:10348000CDBFED010895A29FB001B39FC001A39FDE
:10349000700D811D1124911DB29F700D811D11248D
:1034A000911D089597FB072E16F4009407D077FD21
:1034B00009D00E94661A07FC05D03EF490958195CC
:1034C0009F4F0895709561957F4F0895AA1BBB1B70
:1034D00051E107C0AA1FBB1FA617B70710F0A61B14
:1034E000B70B881F991F5A95A9F780959095BC0135
:1034F000CD010895EE0FFF1F0590F491E02D099482
:10350000CF93DF938230910510F482E090E0E09158
:103510007C06F0917D0620E030E0C0E0D0E03097FE
:1035200011F14081518148175907C0F048175907D8
:1035300061F482819381209719F09B838A832BC049
:1035400090937D0680937C0626C02115310519F0E5
:103550004217530718F49A01BE01DF01EF01028000
:10356000F381E02DDCCF2115310509F1281B390B42
:103570002430310590F412968D919C91139761152A
:10358000710521F0FB019383828304C090937D0633
:1035900080937C06FD01329644C0FD01E20FF31FCB
:1035A00081939193225031092D933C933AC02091FD
:1035B0007A0630917B06232B41F42091060130914D
:1035C000070130937B0620937A0620910401309105
:1035D00005012115310541F42DB73EB74091080191
:1035E00050910901241B350BE0917A06F0917B067E
:1035F000E217F307A0F42E1B3F0B2817390778F0CA
:10360000AC014E5F5F4F2417350748F04E0F5F1F28
:1036100050937B0640937A068193919302C0E0E039
:10362000F0E0CF01DF91CF9108950F931F93CF93D7
:10363000DF93009709F48CC0FC0132971382128249
:1036400000917C0610917D060115110581F4208101
:103650003181820F931F20917A0630917B062817C3
:10366000390779F5F0937B06E0937A0671C0D801AB
:1036700040E050E0AE17BF0750F412962D913C91F8
:103680001397AD012115310509F1D901F3CF9D0142
:10369000DA013383228360817181860F971F82173D
:1036A000930769F4EC0128813981260F371F2E5FBB
:1036B0003F4F318320838A819B8193838283452B73
:1036C00029F4F0937D06E0937C0642C01396FC93A8
:1036D000EE931297ED01499159919E01240F351FE8
:1036E000E217F30771F480819181840F951F029690
:1036F00011969C938E938281938113969C938E93C3
:103700001297E0E0F0E0D80112968D919C9113970A
:10371000009719F0F8018C01F6CF8D919C919801DA
:103720002E5F3F4F820F931F20917A0630917B06C8
:103730002817390769F4309729F410927D06109202
:103740007C0602C01382128210937B0600937A06D5
:10375000DF91CF911F910F910895A0E0B0E0E3EBCE
:10376000FBE10C94101AEC01009721F4CB010E94AC
:10377000801AB8C0FC01E60FF71F9C0122503109E6
:10378000E217F30708F4ACC0D9010D911C91119711
:1037900006171707B0F00530110508F49FC0C801DF
:1037A00004978617970708F499C002501109061B61
:1037B000170B019311936D937C93CF010E94151BFE
:1037C0008DC05B01A01AB10A4C01800E911EA09120
:1037D0007C06B0917D0640E050E0E12CF12C109782
:1037E00009F44AC0A815B905D1F56D907C901197E0
:1037F000630182E0C80ED11CCA14DB0480F1A3016E
:103800004A195B096A0182E0C80ED11C1296BC906D
:1038100012971396AC91B5E0CB16D10440F0B2826A
:10382000A38351834083D9016D937C930AC00E5FBB
:103830001F4FC301800F911FF90191838083EB2DEE
:10384000FA2FE114F10431F0D7011396FC93EE93B3
:10385000129744C0F0937D06E0937C063FC08D91A3
:103860009C9111974817590708F4AC017D011296F5
:103870000D90BC91A02DB3CF80917A0690917B06DC
:1038800088159905E1F446175707C8F4809104019B
:1038900090910501009741F48DB79EB740910801C2
:1038A00050910901841B950BE817F907C8F4F093B0
:1038B0007B06E0937A06F901718360830FC0CB0128
:1038C0000E94801A7C01009759F0A801BE010E9455
:1038D000891CCE010E94151BC70104C0CE0102C085
:1038E00080E090E0CDB7DEB7EEE00C942C1A81E0DA
:1038F00090E0F8940C94B31CFB01DC0104C08D91A2
:103900000190801921F441505040C8F7881B990B51
:103910000895FB01DC0102C001900D92415050401E
:10392000D8F70895FC018191861721F08823D9F7F3
:10393000992708953197CF010895FB01DC0101908B
:103940000D920020E1F70895FB01DC014150504049
:1039500048F001900D920020C9F701C01D9241501E
:103960005040E0F7089510E0CAE6D0E004C0FE0140
:103970000E947A1A2196CB36D107C9F7F894FFCF67
:10398000FFFFFFFF00007E06800000000000009A9D
:103990000C620D570D5A0D790C8A1194110000001C
:1039A000000000FD00CD0895004401C600A400B849
:1039B0000000000000C401B001570DA201A901A63A
:1039C00001A30100000000B008CD08570D560D00FE
:1039D000000000C90CCD08570DC80C1D0D350DB0E9
:1039E0000C00000000D501CD08570D560DD501D5AE
:1039F00001D50100000000D501CD08570D560D5628
:103A00004D4450565F317C315F564D4450560D0A3F
:103A100000426567696E2050726F6772616D004683
:103A200061696C20746F20696E697469616C697A70
:103A3000652053444361726400456E64696E67207B
:103A400050726F6772616D00564D4450455F003A89
:103A5000323A007C005F564D4450450020002F0054
:103A6000556E61626C6520746F20526561642046FA
:103A7000696C65004143484F5555004E414F204108
:103A800043484F55203A28004E6F7468696E67208E
:103A9000466F756E640049444C6973742E74787473
:023AA000000024
:107E0000112484B714BE81FFF0D085E080938100F7
:107E100082E08093C00088E18093C10086E0809377
:107E2000C20080E18093C4008EE0C9D0259A86E02C
:107E300020E33CEF91E0309385002093840096BBD3
:107E4000B09BFECF1D9AA8958150A9F7CC24DD24C4
:107E500088248394B5E0AB2EA1E19A2EF3E0BF2EE7
:107E6000A2D0813461F49FD0082FAFD0023811F036
:107E7000013811F484E001C083E08DD089C08234E0
:107E800011F484E103C0853419F485E0A6D080C0E4
:107E9000853579F488D0E82EFF2485D0082F10E0AE
:107EA000102F00270E291F29000F111F8ED06801E7
:107EB0006FC0863521F484E090D080E0DECF843638
:107EC00009F040C070D06FD0082F6DD080E0C81688
:107ED00080E7D80618F4F601B7BEE895C0E0D1E017
:107EE00062D089930C17E1F7F0E0CF16F0E7DF06D8
:107EF00018F0F601B7BEE89568D007B600FCFDCFD4
:107F0000A601A0E0B1E02C9130E011968C91119780
:107F100090E0982F8827822B932B1296FA010C0160
:107F200087BEE89511244E5F5F4FF1E0A038BF0790
:107F300051F7F601A7BEE89507B600FCFDCF97BE46
:107F4000E89526C08437B1F42ED02DD0F82E2BD052
:107F50003CD0F601EF2C8F010F5F1F4F84911BD097
:107F6000EA94F801C1F70894C11CD11CFA94CF0C13
:107F7000D11C0EC0853739F428D08EE10CD085E9AC
:107F80000AD08FE07ACF813511F488E018D01DD067
:107F900080E101D065CF982F8091C00085FFFCCF94
:107FA0009093C60008958091C00087FFFCCF809118
:107FB000C00084FD01C0A8958091C6000895E0E648
:107FC000F0E098E1908380830895EDDF803219F02E
:107FD00088E0F5DFFFCF84E1DECF1F93182FE3DFCA
:107FE0001150E9F7F2DF1F91089580E0E8DFEE27F6
:047FF000FF270994CA
:027FFE00040479
:0400000300007E007B
:00000001FF