:100000000C9463000C948B000C948B000C947D0971
:100010000C947D090C947D090C948B000C948B003E
:100020000C948B000C948B000C948B000C948B0024
:100030000C948B000C948B000C948B000C948B0014
:100040000C9405080C948B000C94FA0A0C94D40AB6
:100050000C948B000C948B000C948B000C948B00F4
:100060000C944F080C948B00000000080002010063
:100070000003040700000000000000000000000072
:10008000250028002B0000000000240027002A0083
:1000900000000000230026002900040404040404D6
:1000A0000404020202020202030303030303010227
:1000B00004081020408001020408102001020408F6
:1000C0001020C90DDC0B11241FBECFEFD8E0DEBF1E
:1000D000CDBF25E0ACE6B1E001C01D92A43BB20764
:1000E000E1F711E0A0E0B1E0E0E1FFE102C005903E
:1000F0000D92AC36B107D9F710E0C2E6D0E004C0EB
:100100002197FE010E94700FC136D107C9F70E94E6
:10011000F80B0C947B0F0C9400008EBD00000DB406
:1001200007FEFDCF8EB508958FEF0C948D0085ED01
:100130008093BC008091BC0084FDFCCF1092F9013B
:1001400008954091D301262F30E0240F311D213234
:100150003105DCF42091F9012430C9F4FC0180E080
:1001600090E0861758F43091D3012191DC01AF540F
:10017000BE4FA30FB11D2C930196F3CF8091D301F5
:10018000680F6093D30180E0089581E0089582E0D4
:10019000089508958FEF9FEF08958FEF9FEF0895D3
:1001A0008091B00190E09195819591090895CF9348
:1001B000DF9300D0CDB7DEB7CB01642F49835A83DC
:1001C0000E94A1004981842F5A81952F0F900F9092
:1001D000DF91CF910895CF93DF931F92CDB7DEB714
:1001E000698361E0CE0101960E94A10081E090E068
:1001F0000F90DF91CF9108952091AE013091AF0122
:100200002817390771F49091AD018091AC019817CE
:1002100041F0E091AD01F0E0E459FE4F808190E0C3
:1002200008958FEF9FEF089508951F93CF93DF9365
:10023000DC015C962D913C915D972115310539F4D7
:1002400081E090E013969C938E9312973DC0519657
:10025000ED91FC91529750969C915097892F8095E3
:100260001FB75E964C915E9741FB772770F941FD71
:100270006095F8944081772311F0492B01C0482301
:100280004083E9012197F1F748E0508160FF02C007
:10029000592B01C058235083E9012197F1F7669546
:1002A000415099F7772321F090818923808303C0FF
:1002B0008081982B90831FBF5C968D919C915D9758
:1002C0000197F1F721E030E0C901DF91CF911F9153
:1002D00008952091AE013091AF012817390771F4CC
:1002E0008091AC012091AD0190E0805C9F4F821B1A
:1002F000910960E470E00E94480F089580E090E06A
:1003000008952091AE013091AF0128173907B9F453
:100310009091AD018091AC01981789F0E091AD0109
:10032000F0E0E459FE4F80812091AD0130E02F5F75
:100330003F4F2F7333272093AD0190E008958FEF47
:100340009FEF0895089580E090E0089590E0FC010B
:10035000E859FF4F3491FC01E255FF4F2491FC0115
:10036000E656FF4FE491EE2309F43BC0332339F105
:10037000333091F038F43130A9F0323001F584B5E2
:100380008F7D12C0373091F03830A1F03430B9F49D
:10039000809180008F7D03C0809180008F77809353
:1003A00080000DC084B58F7784BD09C08091B000F6
:1003B0008F7703C08091B0008F7D8093B000F0E014
:1003C000EE0FFF1FE458FF4FA591B4918FB7F8943B
:1003D000EC91611103C020952E2301C02E2B2C938C
:1003E0008FBF089561E0FC0184810E94A601809185
:1003F0001F02811110921F020895CF93DF93EC0129
:100400008E81882389F08F8198859C012F5F3F4FD3
:1004100038872F838230924018F40E949400F3CFE3
:10042000CE010E94F2011E82DF91CF9108952FB775
:10043000F89460912C0470912D0480912E04909179
:100440002F042FBF08950F931F93CF93DF93EB01DA
:100450000E9417028B010E9494008F3F49F00E9476
:100460001702601B710B6C177D07A8F380E001C0B9
:1004700081E0DF91CF911F910F910895CF92DF928C
:10048000FF920F931F93CF93DF9300D000D0CDB78F
:10049000DEB76C01F62E29833A834B835C830E947E
:1004A000FD0180911F0229813A814B815C8181117C
:1004B00009C081E080931F0290911D0580911E0567
:1004C0009CBD8DBD60E0F601848129833A834B8316
:1004D0005C830E94A6016CE271E0C6010E942302C7
:1004E0008F2D80640E948D0008E110E05C814B81BB
:1004F0003A812981DA01C901002E04C0B695A79579
:10050000979587950A94D2F729833A834B835C8326
:100510000E948D000850110929813A814B815C812C
:10052000083FFFEF1F0731F7FF2029F088E0F8129E
:1005300004C087E803C085E901C08FEF0E948D00E9
:1005400010E00E949400F601828787FF04C01F3FDD
:1005500011F01F5FF6CF0F900F900F900F90DF916B
:10056000CF911F910F91FF90DF90CF900895EF9260
:10057000FF920F931F93CF93DF93EC017901411505
:1005800051056105710511F482E13CC08B85833012
:1005900039F089E0440F551F661F771F8A95D1F700
:1005A0009A01AB0168E1CE010E943E02882311F05E
:1005B00084E028C08EEF0E948D0087018EEFF81A2C
:1005C000F80181918F010E948D000E151F05C1F762
:1005D0008FEF0E948D008FEF0E948D000E9494008B
:1005E0008A878F71853031F081E18D83CE010E9441
:1005F000F20109C068E572E0CE010E942302811178
:1006000007C085E18D83CE010E94F20180E013C016
:1006100020E030E0A9016DE0CE010E943E02811190
:1006200004C00E949400882311F084E1EBCFCE0136
:100630000E94F20181E0DF91CF911F910F91FF9015
:10064000EF900895CF93DF9380912202882399F150
:10065000C0912002D09121024091000150910101EE
:10066000609102017091030127E232E0CE010E9405
:10067000B702811102C080E01FC040912302509157
:1006800024026091250270912602411551056105F1
:10069000710579F027E232E0CE010E94B70288238B
:1006A00051F310922302109224021092250210920C
:1006B00026021092220281E0DF91CF910895BF922D
:1006C000CF92DF92EF92FF920F931F93CF93DF931E
:1006D0006B017C01B42E8091000190910101A091E9
:1006E0000201B09103018C159D05AE05BF0509F40B
:1006F00076C00E942203882309F478C0C0912002AA
:10070000D09121028E81882369F088819981AA8104
:10071000BB81C816D906EA06FB0621F48F819885AD
:10072000892BB1F1C882D982EA82FB828B85A7012D
:100730009601833039F089E0220F331F441F551F83
:100740008A95D1F761E1CE010E943E02882319F01B
:1007500083E08D8337C00E9417028B010E949400B2
:100760008A878F3F49F40E941702601B710B6D321C
:100770007140A0F38FE003C08E3F31F08DE08D8398
:10078000CE010E94F2011EC018861F8281E08E8376
:1007900007E212E00E949400F80181938F01F4E0D7
:1007A00007321F07B9F78F8198859E5F98878F83DF
:1007B0002985222319F08115924048F0CE010E942C
:1007C000FD0105C0CE010E94F20180E00FC0C09281
:1007D0000001D0920101E0920201F09203018091A8
:1007E0002202482F4B294093220281E0DF91CF91D2
:1007F0001F910F91FF90EF90DF90CF90BF900895E1
:100800004F925F926F927F928F929F92AF92BF9220
:10081000CF92DF92EF92FF920F931F93CF93DF93CC
:10082000EC016A017B012801390142305105610563
:10083000710510F480E073C089859A85AB85BC850D
:100840000196A11DB11D84179507A607B70790F360
:100850008B889C88AD88BE888F89803129F4BB271E
:10086000AF2D9E2D8D2D09C0DB01CA0147E0B69545
:10087000A795979587954A95D1F7880E991EAA1E38
:10088000BB1E8091000190910101A0910201B091E5
:10089000030188169906AA06BB0679F48F89803170
:1008A000A1F4DD24EE24FF24C601880F991FFC016A
:1008B000E95DFD4F5182408219C040E0C501B4019D
:1008C0000E945F038111EACFB5CFE894C7F8DD2419
:1008D000EE24FF24C601880F991F880F991FFC0181
:1008E000E95DFD4F408251826282738280912202D3
:1008F0008160809322028A89823080F08D819E817E
:10090000AF81B885880E991EAA1EBB1E8092230255
:1009100090922402A0922502B092260281E0DF91FB
:10092000CF911F910F91FF90EF90DF90CF90BF90EC
:10093000AF909F908F907F906F905F904F900895B1
:100940008F929F92AF92BF92CF92DF92EF92FF92DF
:100950000F931F93CF93DF93FC0181859285A3852D
:10096000B4850196A11DB11D84179507A607B70789
:1009700010F480E05CC083899489A589B689C78911
:10098000C03129F4852E962EA72EBB2409C04A011A
:100990005B01C7E0B694A79497948794CA95D1F762
:1009A000E9016A017B018F01BC01CD01680D791D50
:1009B0008A1D9B1D8090000190900101A090020172
:1009C000B0900301681579058A059B0599F4F80133
:1009D00087898031A9F4B701A601552766277727B3
:1009E000440F551FFA01E95DFD4F80819181A0E020
:1009F000B0E018C040E00E945F038111E8CFB9CF9A
:100A0000B701A6014F77552766277727440F551F53
:100A1000440F551FFA01E95DFD4F80819181A2814C
:100A2000B381BF7088839983AA83BB8381E0DF9100
:100A3000CF911F910F91FF90EF90DF90CF90BF90DB
:100A4000AF909F908F9008953F924F925F926F92D8
:100A50007F928F929F92AF92BF92CF92DF92EF924E
:100A6000FF920F931F93CF93DF93CDB7DEB72C97F1
:100A70000FB6F894DEBF0FBECDBF5C01DC015B9604
:100A80008D909C905C971696CD90DD90ED90FC90AB
:100A90001997C114D104E104F10439F0BFEFCB1A66
:100AA000DB0AEB0AFB0A312C07C0F401C080D180BD
:100AB000E280F38033243394F40181859285A38509
:100AC000B4859C01AD012F5F3F4F4F4F5F4F29878A
:100AD0003A874B875C87260137011D821E821F8261
:100AE0001886F40181859285A385B4852D813E8188
:100AF0004F815885281739074A075B0708F063C0FC
:100B000089859A85AB85BC858C159D05AE05BF058D
:100B100050F482E0C82ED12CE12CF12C92E0492E29
:100B2000512C612C712C9E012F5F3F4FB701A60104
:100B3000C4010E94A004882309F445C089819A81D8
:100B4000AB81BC81892B8A2B8B2B41F0260137018D
:100B50009FEF491A590A690A790A05C0C414D504D5
:100B6000E604F70491F02D813E814F8158852F5F77
:100B70003F4F4F4F5F4F2D833E834F8358873FEF4B
:100B8000C31AD30AE30AF30AACCF0FEF1FEF2FEF1C
:100B90003FE0B301A201C4010E940004882399F040
:100BA000D50116964D915D916D917C9119974115E6
:100BB00051056105710549F093018201C4010E944C
:100BC0000004811102C080E02AC0D50116964D9222
:100BD0005D926D927C921997332051F0D301C2013E
:100BE0000196A11DB11DF40180839183A283B3837B
:100BF000F5018789908DA18DB28D892B8A2B8B2B46
:100C000069F4D50157964D925D926D927C925A97F8
:100C100014968C911497806814968C9381E02C968E
:100C20000FB6F894DEBF0FBECDBFDF91CF911F91FD
:100C30000F91FF90EF90DF90CF90BF90AF909F907B
:100C40008F907F906F905F904F903F9008954F925C
:100C50005F926F927F928F929F92AF92BF92EF922C
:100C6000FF920F931F93CF93DF9300D000D01F927A
:100C7000CDB7DEB78C016D83DC0115968C9115978D
:100C8000813009F057C014968C9181FF53C05AC02F
:100C9000038CF48DE02D258530E0275F3F4F2A013E
:100CA0003B01B1E04B1A510861087108022E04C0E3
:100CB00076946794579447940A94D2F7D501C40167
:100CC0000197A109B10904C0B695A7959795879595
:100CD0002A95D2F784159505A605B70508F070C0CA
:100CE000F8014789508D618D728D468357836087E7
:100CF00071872C013D017801E6E0EE0EF11CD80170
:100D0000411451046104710409F464C016964D91B4
:100D10005D916D917C91199797015B968D919C9156
:100D20005C970E94A004B1E04B1A51086108710859
:100D30008111E5CF81E090E0F8019383828380E028
:100D400090E04FC182FF0EC0F80142855385648553
:100D5000758583889488A588B688481559056A05DD
:100D60007B05F1F4D8011A964D915D916D917C91BE
:100D70001D975B968D919C915C97FC0174807A9491
:100D80004A015B0129E0B694A794979487942A9529
:100D9000D1F778207A01F1E0FF22772011F164C0C9
:100DA00081149104A104B10409F072CF1682178254
:100DB00010861186F8011286138614861586D2CF06
:100DC000452B462B472B09F48BCF84199509A6098F
:100DD000B7098FCF1A968D929D92AD92BC921D97B6
:100DE000C1CFE114F10409F03FC0F80146815781F9
:100DF00060857185411551056105710549F4878943
:100E0000908DA18DB28D0097A105B10541F521C04E
:100E10009E012F5F3F4F0E94A004882309F48FCFCB
:100E200089819A81AB81BC81F801238D348DF901D0
:100E30002789203129F048EF5FEF6FEF7FE004C092
:100E400048EF5FEF60E070E084179507A607B707EB
:100E500030F0C8010E942405811106C06BCFF80153
:100E600086839783A087B187D8015B96ED91FC912B
:100E70005C9716968D909D90AD90BC901997B2E0BE
:100E80008B1A9108A108B108058404C0880C991C2C
:100E9000AA1CBB1C0A94D2F786859785A089B189C4
:100EA000880E991EAA1EBB1E870C911CA11CB11C8A
:100EB000E114F10409F5F8014285538564857585CF
:100EC00083899489A589B689481759076A077B07DA
:100ED00098F00E942203882309F42CCF809200010D
:100EE00090920101A0920201B0920301809122022E
:100EF00081608093220208C041E0C501B4010E94D4
:100F00005F03882309F416CFF701E95DFD4F8D815A
:100F10008083F80182859385A485B5850196A11DFE
:100F2000B11D82879387A487B587438954896589D2
:100F30007689481759076A077B0738F4838B948BA7
:100F4000A58BB68B848180688483D80114968C919C
:100F500083FD03C081E090E044C0F80195819923AE
:100F600009F4E8CE87FF38C0668577858089918946
:100F700041E00E945F03882309F4DCCED801529639
:100F8000EC91B0E2EB9F90011124D901A95DBD4F16
:100F9000109709F4CFCEF8018581823050F443894F
:100FA0005489658976895C964D935D936D937C93A6
:100FB0005F97F8018789908DA18DB28DF901E95D68
:100FC000FD4F938F828FB58BA48BD80114968C9193
:100FD00014978F7714968C930E9422038111BACFB5
:100FE000A9CE0F900F900F900F900F90DF91CF919F
:100FF0001F910F91FF90EF90BF90AF909F908F90B7
:101000007F906F905F904F9008951F920F920FB650
:101010000F9211242F933F938F939F93AF93BF937E
:1010200080912C0490912D04A0912E04B0912F0456
:1010300030912B0423E0230F2D3720F40196A11DBE
:10104000B11D05C026E8230F0296A11DB11D2093F6
:101050002B0480932C0490932D04A0932E04B09322
:101060002F048091270490912804A0912904B09125
:101070002A040196A11DB11D809327049093280492
:10108000A0932904B0932A04BF91AF919F918F91AF
:101090003F912F910F900FBE0F901F9018951F92A8
:1010A0000F920FB60F9211242F933F934F935F939C
:1010B0006F937F938F939F93AF93BF93EF93FF9320
:1010C0008091B900887F803609F49CC068F5883229
:1010D00009F45BC090F4803109F454C038F48823DB
:1010E00009F4F6C0883009F44DC0F6C0883109F41F
:1010F0004CC0803209F45DC0EFC0803409F468C090
:1011000048F4803309F455C0883309F0E5C0809372
:10111000F801D8C0803509F44FC0883509F45DC0A6
:10112000883409F0D9C0D6C0883909F4C7C0A8F4FA
:10113000883709F467C038F4883609F463C080370B
:1011400009F460C0C9C0883809F4B8C0803909F40E
:101150005FC0803809F0C0C05BC0803B09F486C026
:1011600038F4803A09F466C0883A09F47FC0B4C004
:10117000803C09F4A7C0883C09F4A4C0883B09F46A
:101180008AC0AAC080911E0210C090911D02809159
:101190001C02981770F5E0911D0281E08E0F80937C
:1011A0001D02F0E0E450FE4F80818093BB0085EC8F
:1011B00086C08093F8018EC0E0911D0281E08E0F01
:1011C00080931D028091BB00F0E0E450FE4F8083CD
:1011D00090911D0280911C026EC0E0911D0281E081
:1011E0008E0F80931D028091BB00F0E0E450FE4F13
:1011F00080838091FB0181116DC081E08093FA01B1
:1012000084EA61C083E08093F9011092F701CFCFA7
:101210008091F701803208F051C0E091F70181E040
:101220008E0F8093F7018091BB00F0E0E952FE4FF2
:101230008083BDCF85EC8093BC001092F901809132
:10124000F701803230F4E091F701F0E0E952FE4F0F
:1012500010826091F70170E0E091D501F091D60124
:1012600087ED91E009951092F70136C084E08093F4
:10127000F9011092D4011092D301E091D101F091C3
:10128000D20109958091D301811105C081E080933D
:10129000D3011092B101E091D40181E08E0F8093CF
:1012A000D401F0E0EF54FE4F80818093BB00909119
:1012B000D4018091D301981708F479CF85E8809301
:1012C000BC000AC085EC8093BC001092F90104C0F8
:1012D0001092F8010E949700FF91EF91BF91AF919A
:1012E0009F918F917F916F915F914F913F912F913E
:1012F0000F900FBE0F901F9018951F920F920FB670
:101300000F9211242F933F934F935F936F937F938B
:101310008F939F93AF93BF93EF93FF93E091AE01B1
:10132000F091AF01309709F451C0968DA685B7852D
:10133000858591FF04C09C91892329F447C09C9125
:10134000892309F043C0A389B4899C91858980953C
:1013500089238C93868997890197F1F7608D718D28
:10136000A685B785558538E020E0CB010197F1F7D8
:10137000822F90E095958795282F4C91452309F071
:101380002068315091F7868D81FD20958091AC01C8
:1013900090E001968F7399273091AD01381749F08D
:1013A000A091AC01B0E0A459BE4F2C938093AC0146
:1013B00003C0868D8160868F828D938D0197F1F7B2
:1013C000A389B4899C918589892B8C93FF91EF9196
:1013D000BF91AF919F918F917F916F915F914F914D
:1013E0003F912F910F900FBE0F901F901895FC0109
:1013F000538D448D252F30E0842F90E0821B930B7A
:10140000541710F0CF96089501970895FC01918D1F
:10141000828D981761F0828DDF01A80FB11D5D9656
:101420008C91928D9F5F9F73928F90E008958FEFC4
:101430009FEF0895FC01918D828D981731F0828D78
:10144000E80FF11D858D90E008958FEF9FEF0895CF
:10145000FC01918D228D892F90E0805C9F4F821B33
:1014600091098F739927089588E394E00E94280AD0
:1014700021E0892B09F420E0822F0895FC01848D5E
:10148000DF01A80FB11DA35ABF4F2C91848D90E0AE
:1014900001968F739927848FA689B7892C93A08989
:1014A000B1898C9180648C93938D848D981306C040
:1014B0000288F389E02D80818F7D80830895EF92EB
:1014C000FF920F931F93CF93DF93EC0181E0888FFE
:1014D0009B8D8C8D981305C0E889F989808185FDE5
:1014E00024C0F62E0B8D10E00F5F1F4F0F731127D6
:1014F000E02E8C8DE8120CC00FB607FCFACFE889FD
:10150000F989808185FFF5CFCE010E943E0AF1CF97
:101510008B8DFE01E80FF11DE35AFF4FF0820B8F18
:10152000EA89FB898081806207C0EE89FF89608338
:10153000E889F98980818064808381E090E0DF918F
:10154000CF911F910F91FF90EF900895CF93DF936C
:10155000EC01888D8823C9F0EA89FB89808185FDAB
:1015600005C0A889B9898C9186FD0FC00FB607FC0C
:10157000F5CF808185FFF2CFA889B9898C9185FF4D
:10158000EDCFCE010E943E0AE7CFDF91CF910895C3
:1015900080E090E0892B29F00E94340A81110C949C
:1015A000000008950E94760F1F920F920FB60F92BF
:1015B00011242F933F934F935F936F937F938F9358
:1015C0009F93AF93BF93EF93FF9388E394E00E94C0
:1015D0003E0AFF91EF91BF91AF919F918F917F91C3
:1015E0006F915F914F913F912F910F900FBE0F9090
:1015F0001F9018951F920F920FB60F9211242F93E0
:101600008F939F93EF93FF93E0914804F0914904E7
:101610008081E0914E04F0914F0482FD12C09081D0
:10162000809151048F5F8F7320915204821751F083
:10163000E0915104F0E0E85CFB4F958F80935104FA
:1016400001C08081FF91EF919F918F912F910F9019
:101650000FBE0F901F901895CF92DF92EF92FF92DE
:101660000F931F93CF93DF936C017A018B01C0E03E
:10167000D0E0CE15DF0589F0D8016D918D01D6013E
:10168000ED91FC910190F081E02DC6010995892B27
:1016900011F47E0102C02196ECCFC701DF91CF91FA
:1016A0001F910F91FF90EF90DF90CF9008958F9250
:1016B0009F92AF92BF92CF92DF92EF92FF926B0117
:1016C0007C010E9417024B015C01C60ED71EE81E6A
:1016D000F91E0E941702681579058A059B0528F0F6
:1016E000C616D706E806F906A0F7FF90EF90DF9040
:1016F000CF90BF90AF909F908F9008956115710526
:1017000079F0FB0101900020E9F73197AF01461B0A
:10171000570BDC01ED91FC910280F381E02D0994DF
:1017200080E090E008954F925F926F927F92EF92E7
:10173000FF920F931F93CF93DF93CDB7DEB7A1979F
:101740000FB6F894DEBF0FBECDBF7C01FA01CB010E
:1017500019A2223008F42AE08E010F5D1F4F422E9D
:10176000512C612C712CBF01A30192010E94260F04
:10177000F901CA01015011096A3014F4605D01C019
:10178000695CD8016C93232B242B252B61F7B801BE
:10179000C7010E947E0BA1960FB6F894DEBF0FBE64
:1017A000CDBFDF91CF911F910F91FF90EF907F9070
:1017B0006F905F904F90089588E391E0909341057A
:1017C000809340058091AE019091AF018054954087
:1017D00071F4E0915305F091540590818091550585
:1017E0008095892380831092AF011092AE010895F5
:1017F000789484B5826084BD84B5816084BD85B5EC
:10180000826085BD85B5816085BD80916E008160F7
:1018100080936E001092810080918100826080939D
:10182000810080918100816080938100809180009F
:101830008160809380008091B10084608093B100CA
:101840008091B00081608093B00080917A008460C4
:1018500080937A0080917A00826080937A008091F0
:101860007A00816080937A0080917A00806880930A
:101870007A001092C1001092190510921A05109268
:101880001B0510921C051092D7041092D8041092D8
:10189000D9041092DA0468EB7BE080E090E00E94CB
:1018A000570B88E394E09093180580931705E09117
:1018B0004804F091490482E08083E0914404F0916F
:1018C00045041082E0914604F091470480E1808352
:1018D00010925004E0914C04F0914D0486E0808316
:1018E000E0914A04F0914B04808180618083E09113
:1018F0004A04F0914B04808188608083E0914A041F
:10190000F0914B04808180688083E0914A04F091DB
:101910004B0480818F7D80830E9417026093D704DF
:101920007093D8048093D9049093DA0466E471E04C
:1019300080911705909118050E947E0B6AE070E077
:1019400080E090E00E94570B81E08093EB0484EFED
:10195000882E99249394A12CB12C0E941702672BF6
:10196000682B692B41F40E941702623071058105D2
:10197000910508F40BC10E94170260933404709320
:1019800035048093360490933704C0903004D0908F
:101990003104E0903204F09033046C157D058E051F
:1019A0009F0540F4609330047093310480933204B7
:1019B00090933304C0903004D0903104E09032040E
:1019C000F09033049B01AC012C193D094E095F09CD
:1019D00069017A013AEFC316D104E104F10408F475
:1019E000D5C0609330047093310480933204909397
:1019F00033048092E3049092E404A092E504B09250
:101A0000E6041092E7041092E8041092E9041092A0
:101A1000EA048091DB049091DC04A091DD04B09194
:101A2000DE048093DF049093E004A093E104B0937C
:101A3000E2040E9417026093DB047093DC0480933D
:101A4000DD049093DE040E9417026093D704709324
:101A5000D8048093D9049093DA040E9417026B0192
:101A60007C0168E571E080911705909118050E944E
:101A70007E0B2AE041E050E060E070E080911705C5
:101A8000909118050E94930B6FE571E08091170506
:101A9000909118050E947E0B2AE0B701A601809163
:101AA0001705909118050E94930B61E671E08091F3
:101AB0001705909118050E947E0B8091DB04909190
:101AC000DC04A091DD04B091DE04B701A601481B3F
:101AD000590B6A0B7B0B2AE0809117059091180532
:101AE0000E94930B61E671E08091170590911805B3
:101AF0000E947E0B4091DB045091DC046091DD0478
:101B00007091DE048091DF049091E004A091E104E3
:101B1000B091E204481B590B6A0B7B0B2AE08091C1
:101B20001705909118050E94930B63E671E0809170
:101B30001705909118050E947E0B0E941702AB01B9
:101B4000BC012AE080911705909118050E94930B23
:101B5000E0901705F090180565E671E0C7010E9456
:101B60007E0B65E571E0C7010E947E0B65E070E0C9
:101B700080E090E00E94570B0E9417026093DB0404
:101B80007093DC048093DD049093DE040E94C80A05
:101B9000E4CECF93DF9310923B0410923A0488EE88
:101BA00093E0A0E0B0E080933C0490933D04A093C8
:101BB0003E04B0933F0428E031E030933904209391
:101BC000380425EC30E0309345042093440424ECA1
:101BD00030E0309347042093460420EC30E030930B
:101BE00049042093480421EC30E030934B042093C7
:101BF0004A0422EC30E030934D0420934C0426EC50
:101C000030E030934F0420934E0410925104109210
:101C1000520410925304109254041092DB04109258
:101C2000DC041092DD041092DE041092DF041092A6
:101C3000E0041092E1041092E2041092E304109286
:101C4000E4041092E5041092E6041092E704109266
:101C5000E8041092E9041092EA0420E520931D059F
:101C600010921E0510926405109265051092680589
:101C700010926A0542E050E060E070E040936B052E
:101C800050936C0560936D0570936E0510928205FC
:101C900010928C0510928B052AE131E030938A0571
:101CA0002093890510928E051092AB051092AA051B
:101CB0008093AC059093AD05A093AE05B093AF05AE
:101CC00026E231E03093A9052093A8051092430540
:101CD000109242058093440590934505A0934605D4
:101CE000B093470588E391E09093410580934005C8
:101CF00010925705109256051092590510925805EA
:101D000010925B0510925A0510925D0510925C05C9
:101D100060915E056E7F6D7F60935E056695617074
:101D200081E0682783E00E94A601E1EBF0E02491C6
:101D3000EDE9F0E08491882399F090E0880F991FF5
:101D4000FC01EA57FF4FA591B491FC01E458FF4F05
:101D5000859194918FB7F894EC91E22BEC938FBF1F
:101D6000E1EBF0E0E491E0935005EDE9F0E0E4917F
:101D7000F0E0EE0FFF1FE458FF4F85919491909390
:101D8000520580935105E0EBF0E02491ECE9F0E09E
:101D900084918823C1F090E0880F991FFC01EA57D5
:101DA000FF4FC591D491FC01E458FF4FA591B49128
:101DB0009FB7F8948881E22FE0958E2388838C91D9
:101DC000E823EC939FBF80915E0581FD04C061E034
:101DD00082E00E94A60182E080934C05E0EBF0E0F7
:101DE000E491E0934D05ECE9F0E0E491F0E0EE0FD2
:101DF000FF1FE057FF4F8591949190934F0580937B
:101E00004E05E0911F05F0912005809142059091CB
:101E10004305938382838091440590914505A09169
:101E20004605B091470584839583A683B783809147
:101E3000480590914905A0914A05B0914B058087CE
:101E40009187A287B387DF91CF910895A1E21A2EDF
:101E5000AA1BBB1BFD010DC0AA1FBB1FEE1FFF1F4E
:101E6000A217B307E407F50720F0A21BB30BE40B9E
:101E7000F50B661F771F881F991F1A9469F76095E5
:101E80007095809590959B01AC01BD01CF0108959F
:101E900097FB072E16F4009407D077FD09D00E9417
:101EA0005C0F07FC05D03EF4909581959F4F0895F7
:101EB000709561957F4F0895AA1BBB1B51E107C028
:101EC000AA1FBB1FA617B70710F0A61BB70B881FCA
:101ED000991F5A95A9F780959095BC01CD01089559
:101EE000EE0FFF1F0590F491E02D099481E090E042
:101EF000F8940C947B0F10E0C2E6D0E004C0FE0121
:101F00000E94700F2196C336D107C9F7F894FFCF0E
:101F1000FFFFFFFF000000005F0A2C0BF709A60A75
:101F2000280A060A1A0A0000000027062C0BA30143
:101F3000A20100000000EB00D700A301C900D000FF
:101F4000CD00CA000000000015012C0BA3011401F4
:101F500069018101FC00564D4450565F317C315F70
:101F6000564D4450560D0A00564D4450455F003AB8
:0C1F7000323A007C005F564D44504500A2
:00000001FF
