:100000000C9463000C948B000C948B000C94090AE4
:100010000C94090A0C94090A0C948B000C948B0024
:100020000C948B000C948B000C948B000C948B0024
:100030000C948B000C948B000C948B000C948B0014
:100040000C9491080C948B000C94FC0B0C94D60B24
:100050000C948B000C948B000C948B000C948B00F4
:100060000C94DB080C948B000000000800020100D7
:100070000003040700000000000000000000000072
:10008000250028002B0000000000240027002A0083
:1000900000000000230026002900040404040404D6
:1000A0000404020202020202030303030303010227
:1000B00004081020408001020408102001020408F6
:1000C0001020380C2E0C11241FBECFEFD8E0DEBF5D
:1000D000CDBF25E0A6E8B1E001C01D92A13DB20769
:1000E000E1F711E0A0E0B1E0E8E3F1E202C0059041
:1000F0000D92A638B107D9F710E0C2E6D0E004C0EF
:100100002197FE010E948410C136D107C9F70E94D1
:10011000730D0C948F100C940000FC01538D448DD2
:10012000252F30E0842F90E0821B930B541710F0A2
:10013000CF96089501970895FC01918D828D9817AF
:1001400061F0828DDF01A80FB11D5D968C91928DBB
:100150009F5F9F73928F90E008958FEF9FEF0895B8
:10016000FC01918D828D981731F0828DE80FF11D81
:10017000858D90E008958FEF9FEF0895FC01918D9C
:10018000228D892F90E0805C9F4F821B91098F7395
:100190009927089580E090E0892B29F00E94EC0ACD
:1001A00081110C94000008958EBD00000DB407FE6F
:1001B000FDCF8EB508958FEF0C94D40085ED80931C
:1001C000BC008091BC0084FDFCCF10920F0208950A
:1001D0004091E901262F30E0240F311D21323105F5
:1001E000DCF420910F022430C9F4FC0180E090E09F
:1001F000861758F43091E9012191DC01A953BE4FD3
:10020000A30FB11D2C930196F3CF8091E901680FE4
:100210006093E90180E0089581E0089582E0089507
:1002200008958FEF9FEF08958FEF9FEF08958091CE
:10023000C60190E09195819591090895CF93DF9340
:1002400000D0CDB7DEB7CB01642F49835A830E941B
:10025000E8004981842F5A81952F0F900F90DF91EC
:10026000CF910895CF93DF931F92CDB7DEB7698307
:1002700061E0CE0101960E94E80081E090E00F90DD
:10028000DF91CF91089520914804309149042817B7
:10029000390771F49091460480914704981741F012
:1002A000E0914604F0E0EA57FE4F808190E0089527
:1002B0008FEF9FEF089508951F93CF93DF93DC0195
:1002C0005C962D913C915D972115310539F481E0C3
:1002D00090E013969C938E9312973DC05196ED91AA
:1002E000FC91529750969C915097892F80951FB7FB
:1002F0005E964C915E9741FB772770F941FD6095C2
:10030000F8944081772311F0492B01C048234083A2
:10031000E9012197F1F748E0508160FF02C0592BB5
:1003200001C058235083E9012197F1F766954150A8
:1003300099F7772321F090818923808303C08081FE
:10034000982B90831FBF5C968D919C915D97019730
:10035000F1F721E030E0C901DF91CF911F910895BD
:1003600020914804309149042817390771F480918D
:1003700047042091460490E0805C9F4F821B9109C6
:1003800060E470E00E945C10089580E090E00895C1
:10039000209148043091490428173907B9F4909105
:1003A000460480914704981789F0E0914604F0E0F4
:1003B000EA57FE4F80812091460430E02F5F3F4F87
:1003C0002F7333272093460490E008958FEF9FEF1B
:1003D0000895089580E090E008950E948A10FC013D
:1003E000848DDF01A80FB11DA35ABF4F2C91848DBE
:1003F00090E001968F739927848FA689B7892C93F3
:10040000A089B1898C9180648C93938D848D98138D
:1004100006C00288F389E02D80818F7D8083089556
:10042000CF93DF93EC01888D8823C9F0EA89FB899B
:10043000808185FD05C0A889B9898C9186FD0FC092
:100440000FB607FCF5CF808185FFF2CFA889B98967
:100450008C9185FFEDCFCE010E94EF01E7CFDF91B8
:10046000CF91089590E0FC01E859FF4F3491FC01D1
:10047000E255FF4F2491FC01E656FF4FE491EE2335
:1004800009F43BC0332339F1333091F038F4313083
:10049000A9F0323001F584B58F7D12C0373091F06C
:1004A0003830A1F03430B9F4809180008F7D03C0E2
:1004B000809180008F77809380000DC084B58F7706
:1004C00084BD09C08091B0008F7703C08091B000D7
:1004D0008F7D8093B000F0E0EE0FFF1FE458FF4FD8
:1004E000A591B4918FB7F894EC91611103C0209558
:1004F0002E2301C02E2B2C938FBF089561E0FC01A9
:1005000084810E943202809135028111109235025D
:100510000895CF93DF93EC018E81882389F08F813A
:1005200098859C012F5F3F4F38872F838230924000
:1005300018F40E94DB00F3CFCE010E947E021E82DF
:10054000DF91CF9108952FB7F89460914204709194
:10055000430480914404909145042FBF08950F9364
:100560001F93CF93DF93EB010E94A3028B010E94A4
:10057000DB008F3F49F00E94A302601B710B6C17D8
:100580007D07A8F380E001C081E0DF91CF911F914A
:100590000F910895CF92DF92FF920F931F93CF9305
:1005A000DF9300D000D0CDB7DEB76C01F62E2983E3
:1005B0003A834B835C830E948902809135022981B2
:1005C0003A814B815C81811109C081E080933502C1
:1005D00090914A0480914B049CBD8DBD60E0F60172
:1005E000848129833A834B835C830E9432026CE2CC
:1005F00071E0C6010E94AF028F2D80640E94D4007A
:1006000008E110E05C814B813A812981DA01C9015E
:10061000002E04C0B695A795979587950A94D2F7B2
:1006200029833A834B835C830E94D40008501109CC
:1006300029813A814B815C81083FFFEF1F0731F729
:10064000FF2029F088E0F81204C087E803C085E99C
:1006500001C08FEF0E94D40010E00E94DB00F60181
:10066000828787FF04C01F3F11F01F5FF6CF0F90F6
:100670000F900F900F90DF91CF911F910F91FF90EE
:10068000DF90CF900895EF92FF920F931F93CF9337
:10069000DF93EC017901411551056105710511F4F4
:1006A00082E13CC08B85833039F089E0440F551FCF
:1006B000661F771F8A95D1F79A01AB0168E1CE01D9
:1006C0000E94CA02882311F084E028C08EEF0E94A5
:1006D000D40087018EEFF81AF80181918F010E94F2
:1006E000D4000E151F05C1F78FEF0E94D4008FEFC5
:1006F0000E94D4000E94DB008A878F71853031F020
:1007000081E18D83CE010E947E0209C068E572E01E
:10071000CE010E94AF02811107C085E18D83CE0119
:100720000E947E0280E013C020E030E0A9016DE06D
:10073000CE010E94CA02811104C00E94DB008823FE
:1007400011F084E1EBCFCE010E947E0281E0DF91C7
:10075000CF911F910F91FF90EF900895CF93DF936A
:1007600080913802882399F1C0913602D0913702E6
:1007700040910001509101016091020170910301CB
:100780002DE332E0CE010E944303811102C080E0DC
:100790001FC04091390250913A0260913B02709122
:1007A0003C02411551056105710579F02DE332E0F8
:1007B000CE010E944303882351F310923902109214
:1007C0003A0210923B0210923C021092380281E0F1
:1007D000DF91CF910895BF92CF92DF92EF92FF9277
:1007E0000F931F93CF93DF936B017C01B42E809105
:1007F000000190910101A0910201B09103018C15BB
:100800009D05AE05BF0509F476C00E94AE0388239E
:1008100009F478C0C0913602D09137028E818823C6
:1008200069F088819981AA81BB81C816D906EA0638
:10083000FB0621F48F819885892BB1F1C882D9827A
:10084000EA82FB828B85A7019601833039F089E02B
:10085000220F331F441F551F8A95D1F761E1CE0146
:100860000E94CA02882319F083E08D8337C00E945A
:10087000A3028B010E94DB008A878F3F49F40E940C
:10088000A302601B710B6D327140A0F38FE003C0B7
:100890008E3F31F08DE08D83CE010E947E021EC01E
:1008A00018861F8281E08E830DE312E00E94DB0038
:1008B000F80181938F01F4E00D331F07B9F78F81A1
:1008C00098859E5F98878F832985222319F081154B
:1008D000924048F0CE010E94890205C0CE010E94DC
:1008E0007E0280E00FC0C0920001D0920101E09230
:1008F0000201F092030180913802482F4B29409366
:10090000380281E0DF91CF911F910F91FF90EF901E
:10091000DF90CF90BF9008954F925F926F927F9239
:100920008F929F92AF92BF92CF92DF92EF92FF92FF
:100930000F931F93CF93DF93EC016A017B01280192
:100940003901423051056105710510F480E073C032
:1009500089859A85AB85BC850196A11DB11D84173B
:100960009507A607B70790F38B889C88AD88BE884B
:100970008F89803129F4BB27AF2D9E2D8D2D09C085
:10098000DB01CA0147E0B695A795979587954A95EB
:10099000D1F7880E991EAA1EBB1E8091000190916E
:1009A0000101A0910201B091030188169906AA06DF
:1009B000BB0679F48F898031A1F4DD24EE24FF2475
:1009C000C601880F991FFC01E35CFD4F51824082F4
:1009D00019C040E0C501B4010E94EB038111EACFC8
:1009E000B5CFE894C7F8DD24EE24FF24C601880FB4
:1009F000991F880F991FFC01E35CFD4F40825182D3
:100A000062827382809138028160809338028A8981
:100A1000823080F08D819E81AF81B885880E991ECD
:100A2000AA1EBB1E8092390290923A02A0923B020B
:100A3000B0923C0281E0DF91CF911F910F91FF9026
:100A4000EF90DF90CF90BF90AF909F908F907F906E
:100A50006F905F904F9008958F929F92AF92BF9248
:100A6000CF92DF92EF92FF920F931F93CF93DF937A
:100A7000FC0181859285A385B4850196A11DB11DD8
:100A800084179507A607B70710F480E05CC0838938
:100A90009489A589B689C789C03129F4852E962EF7
:100AA000A72EBB2409C04A015B01C7E0B694A794F6
:100AB00097948794CA95D1F7E9016A017B018F0168
:100AC000BC01CD01680D791D8A1D9B1D8090000120
:100AD00090900101A0900201B09003016815790582
:100AE0008A059B0599F4F80187898031A9F4B7013B
:100AF000A601552766277727440F551FFA01E35CA7
:100B0000FD4F80819181A0E0B0E018C040E00E94DC
:100B1000EB038111E8CFB9CFB701A6014F77552775
:100B200066277727440F551F440F551FFA01E35CD2
:100B3000FD4F80819181A281B381BF7088839983A9
:100B4000AA83BB8381E0DF91CF911F910F91FF902A
:100B5000EF90DF90CF90BF90AF909F908F900895CF
:100B60003F924F925F926F927F928F929F92AF923D
:100B7000BF92CF92DF92EF92FF920F931F93CF938A
:100B8000DF93CDB7DEB72C970FB6F894DEBF0FBE5C
:100B9000CDBF5C01DC015B968D909C905C971696B6
:100BA000CD90DD90ED90FC901997C114D104E10433
:100BB000F10439F0BFEFCB1ADB0AEB0AFB0A312C48
:100BC00007C0F401C080D180E280F38033243394E5
:100BD000F40181859285A385B4859C01AD012F5FC9
:100BE0003F4F4F4F5F4F29873A874B875C872601DE
:100BF00037011D821E821F821886F401818592852D
:100C0000A385B4852D813E814F81588528173907EA
:100C10004A075B0708F063C089859A85AB85BC8568
:100C20008C159D05AE05BF0550F482E0C82ED12C71
:100C3000E12CF12C92E0492E512C612C712C9E015B
:100C40002F5F3F4FB701A601C4010E942C058823E6
:100C500009F445C089819A81AB81BC81892B8A2B9B
:100C60008B2B41F0260137019FEF491A590A690A77
:100C7000790A05C0C414D504E604F70491F02D8167
:100C80003E814F8158852F5F3F4F4F4F5F4F2D83E0
:100C90003E834F8358873FEFC31AD30AE30AF30A10
:100CA000ACCF0FEF1FEF2FEF3FE0B301A201C40164
:100CB0000E948C04882399F0D50116964D915D9180
:100CC0006D917C911997411551056105710549F0A8
:100CD00093018201C4010E948C04811102C080E052
:100CE0002AC0D50116964D925D926D927C9219970D
:100CF000332051F0D301C2010196A11DB11DF401B1
:100D000080839183A283B383F5018789908DA18D20
:100D1000B28D892B8A2B8B2B69F4D50157964D9276
:100D20005D926D927C925A9714968C91149780687C
:100D300014968C9381E02C960FB6F894DEBF0FBE0C
:100D4000CDBFDF91CF911F910F91FF90EF90DF907A
:100D5000CF90BF90AF909F908F907F906F905F905B
:100D60004F903F9008954F925F926F927F928F9233
:100D70009F92AF92BF92EF92FF920F931F93CF93E8
:100D8000DF9300D000D01F92CDB7DEB78C016D830A
:100D9000DC0115968C911597813009F057C0149697
:100DA0008C9181FF53C05AC0038CF48DE02D2585B2
:100DB00030E0275F3F4F2A013B01B1E04B1A510859
:100DC00061087108022E04C0769467945794479482
:100DD0000A94D2F7D501C4010197A109B10904C051
:100DE000B695A795979587952A95D2F78415950579
:100DF000A605B70508F070C0F8014789508D618DD0
:100E0000728D46835783608771872C013D0178017D
:100E1000E6E0EE0EF11CD8014114510461047104A6
:100E200009F464C016964D915D916D917C9119976E
:100E300097015B968D919C915C970E942C05B1E087
:100E40004B1A5108610871088111E5CF81E090E0EB
:100E5000F8019383828380E090E04FC182FF0EC04F
:100E6000F801428553856485758583889488A588B3
:100E7000B688481559056A057B05F1F4D8011A961C
:100E80004D915D916D917C911D975B968D919C919B
:100E90005C97FC0174807A944A015B0129E0B69466
:100EA000A794979487942A95D1F778207A01F1E056
:100EB000FF22772011F164C081149104A104B104D0
:100EC00009F072CF1682178210861186F8011286F9
:100ED000138614861586D2CF452B462B472B09F453
:100EE0008BCF84199509A609B7098FCF1A968D92D1
:100EF0009D92AD92BC921D97C1CFE114F10409F00F
:100F00003FC0F801468157816085718541155105C3
:100F10006105710549F48789908DA18DB28D009787
:100F2000A105B10541F521C09E012F5F3F4F0E94F1
:100F30002C05882309F48FCF89819A81AB81BC81EC
:100F4000F801238D348DF9012789203129F048EFEC
:100F50005FEF6FEF7FE004C048EF5FEF60E070E0AD
:100F600084179507A607B70730F0C8010E94B0059F
:100F7000811106C06BCFF80186839783A087B18764
:100F8000D8015B96ED91FC915C9716968D909D90A3
:100F9000AD90BC901997B2E08B1A9108A108B108E6
:100FA000058404C0880C991CAA1CBB1C0A94D2F7A7
:100FB00086859785A089B189880E991EAA1EBB1EB9
:100FC000870C911CA11CB11CE114F10409F5F80176
:100FD000428553856485758583899489A589B689F9
:100FE000481759076A077B0798F00E94AE038823C9
:100FF00009F42CCF8092000190920101A09202018D
:10100000B09203018091380281608093380208C059
:1010100041E0C501B4010E94EB03882309F416CF17
:10102000F701E35CFD4F8D818083F8018285938514
:10103000A485B5850196A11DB11D82879387A487DC
:10104000B5874389548965897689481759076A079E
:101050007B0738F4838B948BA58BB68B8481806857
:101060008483D80114968C9183FD03C081E090E0C5
:1010700044C0F8019581992309F4E8CE87FF38C070
:10108000668577858089918941E00E94EB038823FA
:1010900009F4DCCED8015296EC91B0E2EB9F9001BE
:1010A0001124D901A35CBD4F109709F4CFCEF801EC
:1010B0008581823050F443895489658976895C96AC
:1010C0004D935D936D937C935F97F8018789908D25
:1010D000A18DB28DF901E35CFD4F938F828FB58BAB
:1010E000A48BD80114968C9114978F7714968C93B7
:1010F0000E94AE038111BACFA9CE0F900F900F902E
:101100000F900F90DF91CF911F910F91FF90EF9073
:10111000BF90AF909F908F907F906F905F904F9017
:1011200008951F920F920FB60F9211242F933F93A1
:101130008F939F93AF93BF93809142049091430408
:10114000A0914404B09145043091410423E0230F61
:101150002D3720F40196A11DB11D05C026E8230FEF
:101160000296A11DB11D20934104809342049093E7
:101170004304A0934404B093450480913D049091AE
:101180003E04A0913F04B09140040196A11DB11D01
:1011900080933D0490933E04A0933F04B093400499
:1011A000BF91AF919F918F913F912F910F900FBE63
:1011B0000F901F9018951F920F920FB60F92112447
:1011C0002F933F934F935F936F937F938F939F934F
:1011D000AF93BF93EF93FF938091B900887F8036E0
:1011E00009F49CC068F5883209F45BC090F4803142
:1011F00009F454C038F4882309F4F6C0883009F49F
:101200004DC0F6C0883109F44CC0803209F45DC08D
:10121000EFC0803409F468C048F4803309F455C045
:10122000883309F0E5C080930E02D8C0803509F4F8
:101230004FC0883509F45DC0883409F0D9C0D6C0E4
:10124000883909F4C7C0A8F4883709F467C038F4AE
:10125000883609F463C0803709F460C0C9C0883893
:1012600009F4B8C0803909F45FC0803809F0C0C003
:101270005BC0803B09F486C038F4803A09F466C04C
:10128000883A09F47FC0B4C0803C09F4A7C0883C08
:1012900009F4A4C0883B09F48AC0AAC08091340232
:1012A00010C09091330280913202981770F5E0914E
:1012B000330281E08E0F80933302F0E0EE5EFD4F4B
:1012C00080818093BB0085EC86C080930E028EC027
:1012D000E091330281E08E0F809333028091BB0056
:1012E000F0E0EE5EFD4F80839091330280913202F8
:1012F0006EC0E091330281E08E0F809333028091C3
:10130000BB00F0E0EE5EFD4F808380911102811101
:101310006DC081E08093100284EA61C083E0809315
:101320000F0210920D02CFCF80910D02803208F093
:1013300051C0E0910D0281E08E0F80930D028091EB
:10134000BB00F0E0E351FE4F8083BDCF85EC80937E
:10135000BC0010920F0280910D02803230F4E091B7
:101360000D02F0E0E351FE4F108260910D0270E03B
:10137000E091EB01F091EC018DEE91E00995109276
:101380000D0236C084E080930F021092EA011092A1
:10139000E901E091E701F091E80109958091E90107
:1013A000811105C081E08093E9011092C701E091AD
:1013B000EA0181E08E0F8093EA01F0E0E953FE4FED
:1013C00080818093BB009091EA018091E901981798
:1013D00008F479CF85E88093BC000AC085EC80933F
:1013E000BC0010920F0204C010920E020E94DE0098
:1013F000FF91EF91BF91AF919F918F917F916F91ED
:101400005F914F913F912F910F900FBE0F901F90C2
:1014100018951F920F920FB60F9211242F933F939E
:101420004F935F936F937F938F939F93AF93BF93EC
:10143000EF93FF93E0914804F0914904309709F449
:1014400051C0968DA685B785858591FF04C09C9176
:10145000892329F447C09C91892309F043C0A389BB
:10146000B4899C918589809589238C9386899789F5
:101470000197F1F7608D718DA685B785558538E0A8
:1014800020E0CB010197F1F7822F90E095958795A9
:10149000282F4C91452309F02068315091F7868D13
:1014A00081FD20958091470490E001968F739927E4
:1014B00030914604381749F0A0914704B0E0AA578C
:1014C000BE4F2C938093470403C0868D8160868F26
:1014D000828D938D0197F1F7A389B4899C918589B9
:1014E000892B8C93FF91EF91BF91AF919F918F9139
:1014F0007F916F915F914F913F912F910F900FBE10
:101500000F901F901895E0914804F0914904E81756
:10151000F90769F4A389B4899C9185898095892309
:101520008C93109249041092480481E0089580E061
:101530000895E7E9F4E0A089B18982E08C93A4855D
:10154000B5851C92A685B7858FEC8C93108EA489E7
:10155000B58986E08C93A289B3898C9180618C9344
:10156000A289B3898C9188608C93A289B3898C916C
:1015700080688C930288F389E02D80818F7D808341
:101580000895CF92DF92EF92FF920F931F93CF9324
:10159000DF936C017A018B01C0E0D0E0CE15DF054E
:1015A00089F0D8016D918D01D601ED91FC910190EA
:1015B000F081E02DC6010995892B11F47E0102C04E
:1015C0002196ECCFC701DF91CF911F910F91FF9032
:1015D000EF90DF90CF90089587E994E00E94BE00DD
:1015E00021E0892B09F420E0822F08958F929F92A9
:1015F000AF92BF92CF92DF92EF92FF926B017C018C
:101600000E94A3024B015C01C60ED71EE81EF91E04
:101610000E94A302681579058A059B0528F0C61665
:10162000D706E806F906A0F7FF90EF90DF90CF907D
:10163000BF90AF909F908F9008956115710579F0DC
:10164000FB0101900020E9F73197AF01461B570BD2
:10165000DC01ED91FC910280F381E02D099480E0A2
:1016600090E008954F925F926F927F92EF92FF9277
:101670000F931F93CF93DF93CDB7DEB7A1970FB62C
:10168000F894DEBF0FBECDBF7C01FA01CB0119A2D9
:10169000223008F42AE08E010F5D1F4F422E512C9C
:1016A000612C712CBF01A30192010E943A10F90133
:1016B000CA01015011096A3014F4605D01C0695C0F
:1016C000D8016C93232B242B252B61F7B801C7017C
:1016D0000E941D0BA1960FB6F894DEBF0FBECDBFC2
:1016E000DF91CF911F910F91FF90EF907F906F90BE
:1016F0005F904F9008950F931F93CF93DF93EC016A
:101700000E941D0B8C0165E571E0CE010E941D0B4E
:10171000800F911FDF91CF911F910F910895EF924C
:10172000FF920F931F93CF93DF93EC0181E0888F9B
:101730009B8D8C8D981305C0E889F989808185FD82
:1017400024C0F62E0B8D10E00F5F1F4F0F73112773
:10175000E02E8C8DE8120CC00FB607FCFACFE8899A
:10176000F989808185FFF5CFCE010E94EF01F1CF8D
:101770008B8DFE01E80FF11DE35AFF4FF0820B8FB6
:10178000EA89FB898081806207C0EE89FF896083D6
:10179000E889F98980818064808381E090E0DF912D
:1017A000CF911F910F91FF90EF9008951F920F928C
:1017B0000FB60F9211242F933F934F935F936F9324
:1017C0007F938F939F93AF93BF93EF93FF9387E99B
:1017D00094E00E94EF01FF91EF91BF91AF919F9133
:1017E0008F917F916F915F914F913F912F910F90CA
:1017F0000FBE0F901F9018951F920F920FB60F9269
:1018000011242F938F939F93EF93FF93E091A7045D
:10181000F091A8048081E091AD04F091AE0482FDC6
:1018200012C090818091B0048F5F8F732091B104BA
:10183000821751F0E091B004F0E0E956FB4F958F2C
:101840008093B00401C08081FF91EF919F918F91AF
:101850002F910F900FBE0F901F90189588E391E085
:1018600090934D0480934C048CE494E00C94830A90
:10187000CF93DF9310929A041092990488EE93E02C
:10188000A0E0B0E080939B0490939C04A0939D04FF
:10189000B0939E0428E031E030939804209397049D
:1018A00025EC30E03093A4042093A30424EC30E032
:1018B0003093A6042093A50420EC30E03093A804D4
:1018C0002093A70421EC30E03093AA042093A904CC
:1018D00022EC30E03093AC042093AB0426EC30E0F3
:1018E0003093AE042093AD041092B0041092B10472
:1018F0001092B2041092B30420E520934A0410928F
:101900004B041092390510923A0510923D05109241
:101910003F0542E050E060E070E0409340055093A6
:10192000410560934205709343051092570510924C
:101930006105109260052AE131E030935F05209344
:101940005E05109263051092800510927F058093CA
:10195000810590938205A0938305B093840526E2C8
:1019600031E030937E0520937D0510928F05109213
:101970009005109291051092920510929305109285
:101980009405109295051092960510929705109265
:1019900098051092990510929A0510929B05109245
:1019A0009C0510929D0510929E0510924F04109276
:1019B0004E048093500490935104A0935204B0932A
:1019C000530488E391E090934D0480934C0410926B
:1019D00063041092620410926504109264041092E1
:1019E0006704109266041092690410926804609172
:1019F0006A046E7F6D7F60936A046695617081E012
:101A0000682783E00E943202E1EBF0E02491EDE9E7
:101A1000F0E08491882399F090E0880F991FFC01F1
:101A2000EA57FF4FA591B491FC01E458FF4F85910F
:101A300094918FB7F894EC91E22BEC938FBFE1EB8C
:101A4000F0E0E491E0935C04EDE9F0E0E491F0E093
:101A5000EE0FFF1FE458FF4F8591949190935E0421
:101A600080935D04E0EBF0E02491ECE9F0E08491F8
:101A70008823C1F090E0880F991FFC01EA57FF4FBF
:101A8000C591D491FC01E458FF4FA591B4919FB743
:101A9000F8948881E22FE0958E2388838C91E82347
:101AA000EC939FBF80916A0481FD04C061E082E0F5
:101AB0000E94320282E080935804E0EBF0E0E4916F
:101AC000E0935904ECE9F0E0E491F0E0EE0FFF1F41
:101AD000E057FF4F8591949190935B0480935A0453
:101AE000DF91CF910895789484B5826084BD84B5E8
:101AF000816084BD85B5826085BD85B5816085BD09
:101B000080916E00816080936E00109281008091C0
:101B10008100826080938100809181008160809348
:101B20008100809180008160809380008091B1006D
:101B300084608093B1008091B00081608093B00098
:101B400080917A00846080937A0080917A0082602C
:101B500080937A0080917A00816080937A008091EE
:101B60007A00806880937A001092C1001092CD05AF
:101B70001092CE051092CF051092D00510928B05D1
:101B800010928C0510928D0510928E0568EB7BE00B
:101B900080E090E00E94F60A87E994E09093CC05FB
:101BA0008093CB050E94990A0E94A30260938B0543
:101BB00070938C0580938D0590938E0566E471E09B
:101BC0008091CB059091CC050E941D0B6AE070E0DE
:101BD00080E090E00E94F60A81E080939F050E94D9
:101BE000990A68E571E087E994E00E947B0B109206
:101BF00067041092660410926504109264041092B7
:101C00006304109262048DE991E0909369048093DB
:101C1000680490915804963108F057C02DEB30E0DD
:101C200030936304209362042BE931E03093650420
:101C3000209364042CE231E030936704209366041F
:101C400020916800983050F031E09E3008F430E088
:101C500081E001C0880F3A95EAF701C084E0822B49
:101C600080936800983038F09E3040F0963148F00C
:101C700020E030E008C02DE630E005C02BE630E083
:101C800002C02CE630E03093600420935F0498306B
:101C900030F481E001C0880F9A95EAF70EC0292F31
:101CA00030E09E3018F42850310902C02E5031091E
:101CB00081E001C0880F2A95EAF780936104809142
:101CC0006804909169040197F1F7809166049091FE
:101CD0006704892B21F1809148049091490424E004
:101CE0008C349207E1F0009711F00E94830A8091F2
:101CF0006A048E7F80936A0410924704109246040F
:101D00008CE494E09093490480934804E0915F044C
:101D1000F0916004908180916104892B8083F4EFBD
:101D2000CF2EDD24D394E12CF12C0E94A302672B4B
:101D3000682B692B41F40E94A30262307105810572
:101D4000910508F404C10E94A30260939304709368
:101D50009404809395049093960400918F041091BD
:101D600090042091910430919204601771078207CA
:101D7000930740F460938F047093900480939104D0
:101D80009093920400918F041091900420919104FB
:101D9000309192044B015C01801A910AA20AB30AA5
:101DA000950184010A3F11052105310508F4CFC0D2
:101DB00060938F04709390048093910490939204A5
:101DC000C0929705D0929805E0929905F0929A05F5
:101DD00010929B0510929C0510929D0510929E05F5
:101DE00080918F0590919005A0919105B0919205F9
:101DF0008093930590939405A0939505B0939605D1
:101E00000E94A30260938F057093900580939105C3
:101E1000909392050E94A30260938B0570938C05AA
:101E200080938D0590938E050E94A3024B015C0167
:101E300066E671E08091CB059091CC050E941D0B68
:101E40002AE041E050E060E070E08091CB059091A5
:101E5000CC050E94320B6DE671E08091CB0590912C
:101E6000CC050E941D0B2AE0B501A4018091CB0591
:101E70009091CC050E94320B6FE671E08091CB050A
:101E80009091CC050E941D0B80918F05909190053B
:101E9000A0919105B0919205B501A401481B590B81
:101EA0006A0B7B0B2AE08091CB059091CC050E94B8
:101EB000320B6FE671E08091CB059091CC050E94CA
:101EC0001D0B40918F055091900560919105709187
:101ED00092058091930590919405A0919505B091FC
:101EE0009605481B590B6A0B7B0B2AE08091CB05AA
:101EF0009091CC050E94320B61E771E08091CB0597
:101F00009091CC050E941D0B0E94A302AB01BC0165
:101F10002AE08091CB059091CC050E94320B63E7BB
:101F200071E08091CB059091CC050E947B0B65E020
:101F300070E080E090E00E94F60A0E94A3026093A5
:101F40008F057093900580939105909392058CE492
:101F500094E00E94B001181619060CF081C00FEF32
:101F60001FEF8CE494E00E94B001181619060CF0E3
:101F700058C08CE494E00E94C801823009F44EC03D
:101F8000833009F03FC030916B0460E070E040E0C6
:101F900050E0FA01E459FB4F8081A82FB0E0DA97B6
:101FA00014F0875301C0805390E02181E22FF0E0CC
:101FB000FA9714F0275301C02053E4E0880F991FCB
:101FC000EA95E1F76530710544F4FB01E657FB4FF4
:101FD000822B80836F5F7F4F02C0322F382B4E5F82
:101FE0005F4F4C305105A9F630936B04EAE8F4E0FA
:101FF00080E09191892724E0EF38F207D1F783132D
:102000002FC011C00F3F9FEF190709F4AACFF801A5
:10201000E459FB4F80830F5F1F4FA3CF00E010E018
:10202000A0CFCC23E9F0CAE8D4E0499150E060E0C9
:1020300070E02AE087E994E00E94320B6AE771E0E1
:1020400087E994E00E941D0B24E0CF38D20769F79E
:1020500067E571E087E994E00E947B0BC1E007C06F
:102060006CE771E087E994E00E947B0BC0E00E947E
:10207000CA005BCEA1E21A2EAA1BBB1BFD010DC03C
:10208000AA1FBB1FEE1FFF1FA217B307E407F50728
:1020900020F0A21BB30BE40BF50B661F771F881F04
:1020A000991F1A9469F760957095809590959B019A
:1020B000AC01BD01CF01089597FB072E16F40094E3
:1020C00007D077FD09D00E94701007FC05D03EF4C0
:1020D000909581959F4F0895709561957F4F0895D4
:1020E000AA1BBB1B51E107C0AA1FBB1FA617B7073E
:1020F00010F0A61BB70B881F991F5A95A9F780955A
:102100009095BC01CD010895EE0FFF1F0590F4914D
:10211000E02D099481E090E0F8940C948F1010E089
:10212000C2E6D0E004C0FE010E9484102196C336AE
:08213000D107C9F7F894FFCFB5
:10213800FFFFFFFF000000008F0BC10A8D00100297
:10214800BE009C00B00000000000B306C10AEA010E
:10215800E9010000000032011E01EA011001170127
:1021680014011101000000005C01C10AEA015B01D1
:10217800B001C8014301564D4450565F317C315F70
:10218800564D4450560D0A00426567696E205072DC
:102198006F6772616D00564D4450455F003A323AA0
:1021A800007C005F564D4450450020004E4F2050A3
:0621B8004F494E540000E7
:00000001FF
